:020000040800F2
:1000000008070020290200089F110008E70A0008DD
:10001000F10C0008DD0400089F2400080000000027
:10002000000000000000000000000000191C000893
:10003000D907000800000000391200082D1E000832
:100040004302000843020008430200087F1B000827
:10005000430200084302000843020008430200086C
:100060004302000843020008DD07000843020008BD
:10007000430200084302000843020008430200084C
:10008000430200084302000843020008430200083C
:100090004302000843020008430200080908000860
:1000A000430200084302000843020008430200081C
:1000B00043020008991E000843020008430200089A
:1000C00043020008430200084302000843020008FC
:1000D000430200081D220008392200089922000866
:1000E00043020008691500084302000843020008A3
:1000F00043020008430200084302000843020008CC
:1001000043020008430200084302000843020008BB
:10011000430200080D2100084302000843020008C2
:10012000430200084302000843020008430200089B
:10013000430200084302000843020008430200088B
:10014000430200084302000843020008430200087B
:10015000430200084302000843020008430200086B
:10016000430200084302000843020008430200085B
:10017000430200084302000843020008430200084B
:10018000430200084302000800F002F800F03CF8C7
:100190000AA090E8000C82448344AAF10107DA45E2
:1001A00001D100F031F8AFF2090EBAE80F0013F0F8
:1001B000010F18BFFB1A43F00103184780360000F7
:1001C000A0360000103A24BF78C878C1FAD8520788
:1001D00024BF30C830C144BF04680C6070470000C1
:1001E0000023002400250026103A28BF78C1FBD840
:1001F000520728BF30C148BF0B6070471FB503F0DE
:1002000017FB1FBD10B510BD00F031F81146FFF708
:10021000F5FF02F037FD00F04FF803B4FFF7F2FFEF
:1002200003BC00F057F80000094880470948004720
:10023000FEE7FEE7FEE7FEE7FEE7FEE7FEE7FEE796
:10024000FEE7FEE704480549054A064B70470000F3
:10025000311E00088901000808010020080700205D
:100260000803002008030020704770477047754658
:1002700000F02CF8AE4605006946534620F0070012
:10028000854618B020B5FFF7DDFFBDE820404FF0F0
:1002900000064FF000074FF000084FF0000B21F070
:1002A0000701AC46ACE8C009ACE8C009ACE8C0093D
:1002B000ACE8C0098D46704710B50446AFF3008026
:1002C0002046BDE81040FFF7A8BF00000048704777
:1002D000A400002001491820ABBEFEE72600020062
:1002E000704721B1826842F00102826003E08268B7
:1002F00022F00102826070470021084A1168084A12
:100300001140D0E900231A4383681A43C3681A4393
:100310001143044AC2F8041370470000042301404B
:10032000E030FCFF002001400146C86C80B27047FD
:100330000246002013680B400BB1012000E00020B2
:100340007047000030B50246002000235068104C72
:1003500020400D790C6844EA0524204350609068E1
:100360000C4C2040D1E903542C438D682C434D792B
:1003700044EA450420439060D06A20F470000C7D6C
:10038000641EE4B2234340EA0350D06230BD000053
:10039000FFFEFFFCFDF7FFC0F0B504460D46002050
:1003A0000021092D11DDE068A5F10A0606EB4607DC
:1003B000072606FA07F18843A5F10A0606EB46066A
:1003C00003FA06F10843E0600CE0206905EB4507FD
:1003D000072606FA07F1884305EB450603FA06F1FE
:1003E00008432061072A0FDA606B561E06EB86076A
:1003F0001F2606FA07F18843561E06EB860605FA05
:1004000006F10843606322E00D2A0FDA206BD61F45
:1004100006EB86071F2606FA07F18843D61F06EB70
:10042000860605FA06F10843206310E0E06AA2F1AF
:100430000D0606EB86071F2606FA07F18843A2F190
:100440000D0606EB860605FA06F10843E062F0BDEC
:10045000816841F0804181607047000000B58DB037
:100460000121202000F038FF0121880200F054FF14
:1004700008200B9003208DF8300000208DF8330009
:100480000BA9144800F084FA0121880200F054FFFF
:1004900000214FF4806000F04FFF002007900A9089
:1004A0000990089007A8FFF727FF002001908DF81A
:1004B00008008DF809000390059001208DF81800C0
:1004C00001A90548FFF73EFF01210348FFF709FF97
:1004D0000DB000BD001402400022014000BFFEE745
:1004E0003148007844285DD12F4840783A2859D1C6
:1004F0002D48007A6D2855D12B48807B0D2851D18D
:100500002948C07B0A284DD12748807820281DD152
:100510002548C07830384FF47A7110FB01F1224839
:100520004079303800EBC00202EB001001EB800193
:100530001D488079303800EB800001EB40011A48FB
:10054000C079303808441949088025E01648807879
:10055000303842F2107110FB01F11348C078303886
:1005600000EB4002C2EBC01001EBC0010E48407925
:10057000303800EBC00202EB001001EB80010A48AA
:100580008079303800EB800001EB40010648C079EB
:1005900030380844054908800548007840F00100DB
:1005A00003490870704700005C0000200400002030
:1005B000010000203148007844285DD12F48407860
:1005C0003A2859D12D48007A6D2855D12B48807B87
:1005D0000D2851D12948C07B0A284DD12748807861
:1005E00020281DD12548C07830384FF47A7110FB8F
:1005F00001F122484079303800EBC00202EB0010D4
:1006000001EB80011D488079303800EB800001EB60
:1006100040011A48C079303808441949088025E05B
:1006200016488078303842F2107110FB01F11348FF
:10063000C078303800EB4002C2EBC01001EBC001C3
:100640000E484079303800EBC00202EB001001EB9D
:1006500080010A488079303800EB800001EB4001CE
:100660000648C079303808440549088005480078B4
:1006700040F010000349087070470000700000202F
:10068000060000200100002039B1084A1268012349
:1006900083401A43054B1A6006E0044A126801239E
:1006A00083409A43014B1A60704700000074004079
:1006B00030B5002200230A4C226840F6FE748440C4
:1006C000A243D1E900452C438D682C43CD6844EA10
:1006D000050303FA00F42243014C226030BD000000
:1006E0000074004008B500220092054A009200F113
:1006F0000802009B1A440092009A116008BD000095
:100700000074004000B587B00121084600F0E4FD08
:100710000121480700F0F0FD1020059003208DF81E
:10072000180002208DF81B0005A90B4800F030F9D5
:1007300000200190029003900220049001A9002063
:10074000FFF7B6FF01210020FFF79EFF00210846BA
:10075000FFF7C8FF07B000BD0000024070B52DEDE7
:10076000048B0446204602F052FF41EC180B9FED2B
:10077000140B53EC102B51EC180B02F0C3FD41ECA1
:10078000180B9FED110B53EC102B51EC180B02F0D2
:1007900051FF41EC190B9FED0E0B53EC102B02F0A7
:1007A000B1FD41EC180B51EC180B02F003FF85B2C0
:1007B00029460020FFF796FFBDEC048B70BD0000BA
:1007C0000000000000408F40000000000000B0402A
:1007D0006666666666660A407047000010B50A20C5
:1007E00002F08CF91021064800F03DF920B94FF4D1
:1007F0008061044800F042F9102000F079F810BD43
:10080000001802400010024010B50A2002F076F9EC
:100810002021134800F027F920B94FF480711148C6
:1008200000F02CF9202000F063F840210C4800F083
:100830001AF920B94FF480410A4800F01FF940200E
:1008400000F056F88021064800F00DF920B94FF469
:100850008051044800F012F9802000F049F810BDE2
:1008600000180240001002400EB500F0A1F901216D
:10087000880300F051FD0421062001F0CFF9052185
:10088000062001F0CBF90621084601F0C7F907213F
:10089000062001F0C3F9F020009000208DF804003C
:1008A0000C208DF8050001208DF80600684600F048
:1008B00025F80A208DF8080000208DF80900022094
:1008C0008DF80A0001208DF80B0002A800F068FCEA
:1008D00017208DF8080003208DF8090002208DF8FC
:1008E0000A0001208DF80B0002A800F059FC0EBD93
:1008F0000149086070470000143C01400021234971
:100900008279002A3AD00A46126803689A430B4655
:100910001A600A1D126803689A430B1D1A60027957
:1009200011440A6803681A430A60184A08321268B8
:1009300003689A43154B08331A601A1D126803683E
:100940009A43124B0C331A604279102A0ED11A1FA7
:10095000126803681A430D4B08331A601A1D126897
:1009600003681A43094B0C331A600DE007494279BA
:1009700011440A6803681A430A6005E002791144C9
:100980000A6803689A430A6070470000003C01400F
:10099000F0B50A4600210023002400BF3DE00125F8
:1009A00005FA01F3156805EA03049C4234D1056891
:1009B0004F000326BE40B543056015794E00B54093
:1009C0000668354305601579012D02D01579022D91
:1009D00016D185684F000326BE40B5438560557922
:1009E0004E00B540866835438560456801268E40D7
:1009F000B5434560456896798E40B6B2354345604B
:100A0000C5684F000326BE40B543C560D5794E008A
:100A1000B540C6683543C560491C1029BFD3F0BD39
:100A2000F0B5002300244D07ED0E02FA05F3CE10B9
:100A300000F1200555F826504E07F70E0F26BE4050
:100A4000B543CF1000F1200646F82750CE1000F134
:100A5000200555F8265045EA0304CE1000F1200584
:100A600045F82640F0BD0246002013690B400BB14B
:100A7000012000E0002070474183704701837047E8
:100A800042694A404261704710B50446072301227B
:100A900021460848FFF780FC0648FFF7D9FC00BF55
:100AA00002210448FFF744FC0028F9D00148FFF771
:100AB0003BFC10BD002201402DE9F04107460C46E9
:100AC0000025002608E03846FFF7DEFF0544052034
:100AD00002F014F8701CC6B2A642F4DBB5FBF4F0C9
:100AE00080B2BDE8F08100BFFEE700001CB5012127
:100AF000542000F0F1FB4FF4AA40009001208DF843
:100B0000040000208DF8060003208DF80500022067
:100B10008DF8070069462348FFF73AFF4FF48071CC
:100B20002048FFF7ABFF4FF480611E48FFF7A6FF98
:100B30004FF480511B48FFF7A1FF4FF48041194843
:100B4000FFF79CFF4020009001208DF8040000205A
:100B50008DF8060003208DF8050002208DF80700AF
:100B600069461148FFF714FF40210F48FFF784FF43
:100B70004FF48070009001208DF8040000208DF863
:100B8000060003208DF8050002208DF80700694655
:100B90000648FFF7FDFE4FF480710448FFF76CFF35
:100BA0001CBD000000100240000802400018024076
:100BB0001CB50121402000F08FFBF02000900020A8
:100BC0008DF8040003208DF8050001208DF8070042
:100BD00069460248FFF7DCFE1CBD00000018024019
:100BE00010B5044614B101202B4908702A4800783A
:100BF000002835D080212948FFF735FF70B140210A
:100C00002648FFF730FF48B120212448FFF72BFF8B
:100C100020B110212148FFF726FF08BB0A2001F070
:100C20006DFF00201C49087080211C48FFF71BFF46
:100C300008B9032010BD40211848FFF714FF08B978
:100C40000420F7E720211548FFF70DFF08B905201C
:100C5000F0E710211148FFF706FFD8B90620E9E7B1
:100C600080210E48FFF7FFFE012813D140210B48D9
:100C7000FFF7F9FE01280DD120210848FFF7F3FE08
:100C8000012807D110210548FFF7EDFE012801D109
:100C9000014908700020CDE7320000200018024012
:100CA0001CB50121062000F017FB012000908DF8F3
:100CB000040000208DF8060003208DF805000120B7
:100CC0008DF8070069460848FFF762FE6946074845
:100CD000FFF75EFE01210448FFF7D0FE0121034823
:100CE000FFF7CCFE1CBD00000004024000080240DB
:100CF00000BFFEE72DE9F04387B00746002505E079
:100D0000002004A921F81500681CC5B2052DF7DBE9
:100D1000012073490870814600252DE07148007854
:100D200008B300206F490870FFF7DAFB6E480288AD
:100D30002846691CCDB204A921F81020052D12DB2C
:100D4000002407E004A830F8140001A921F81400D9
:100D5000601CC4B2052CF5DB052101A801F010FFD1
:100D600006464FF0000901F0E3FD6048007818B135
:100D7000002007B0BDE8F083B9F1000FCED14FF4E9
:100D800080715B48FFF77AFE4FF47A7001F0B6FE8F
:100D90004FF480715648FFF76FFEBE4248DA4FF4B9
:100DA00080615448FFF768FE4FF001083CE04D4871
:100DB000007848B300204B490870FFF791FBBDF85D
:100DC0001200ADF81000BDF81400ADF81200BDF827
:100DD0001600ADF81400BDF81800ADF81600424832
:100DE0000088ADF81800002407E004A830F81400CB
:100DF00001A921F81400601CC4B2052CF5DB052103
:100E000001A801F0BDFE0646BE4206DB4FF0000819
:100E10004FF480613748FFF731FE01F089FD334818
:100E2000007808B10020A4E7B8F1000FBFD147E077
:100E30004FF480712F48FFF71FFE4FF001083CE090
:100E40002848007848B3002026490870FFF748FB7F
:100E5000BDF81200ADF81000BDF81400ADF8120096
:100E6000BDF81600ADF81400BDF81800ADF8160076
:100E70001D480088ADF81800002407E004A830F8E9
:100E8000140001A921F81400601CC4B2052CF5DB84
:100E9000052101A801F074FE0646BE4206DC4FF0B3
:100EA00000084FF480711348FFF7E8FD01F040FDA2
:100EB0000E48007808B100205BE7B8F1000FBFD101
:100EC0004FF480710A48FFF7D9FD4FF47A7001F0B2
:100ED00015FE4FF480710648FFF7CEFD012048E76C
:100EE0000200002033000020040000202000002029
:100EF000001802400010024070B505460C46094833
:100F0000007808B1002070BD2846FFF7F3FE0548C1
:100F1000007808B10020F6E7204600F005F801202F
:100F2000F1E70000200000202DE9F04387B00746DC
:100F3000002505E0002004A921F81500681CC5B2B1
:100F4000052DF7DB01206D490870814600252DE055
:100F50006B48007808B3002069490870FFF72AFB46
:100F6000684802882846691CCDB204A921F81020DF
:100F7000052D12DB002407E004A830F8140001A9B5
:100F800021F81400601CC4B2052CF5DB052101A872
:100F900001F0F6FD06464FF0000901F02DFD5A481C
:100FA000007818B1002007B0BDE8F083B9F1000F58
:100FB000CED1BE4250DA4FF480515448FFF75CFD69
:100FC00040215348FFF75AFD4FF0010840E04C48DC
:100FD000007848B300204A490870FFF7EBFABDF8E3
:100FE0001200ADF81000BDF81400ADF81200BDF805
:100FF0001600ADF81400BDF81800ADF81600414811
:101000000088ADF81800002407E004A830F81400A8
:1010100001A921F81400601CC4B2052CF5DB0521E0
:1010200001A801F0ADFD0646BE420ADB4FF0000804
:101030004FF480513548FFF721FD40213448FFF738
:101040001BFD01F0D9FC3048007808B10020AAE768
:10105000B8F1000FBBD14FE04FF480412B48FFF7B0
:101060000BFD40212A48FFF709FD4FF0010840E041
:101070002348007848B3002021490870FFF79AFA06
:10108000BDF81200ADF81000BDF81400ADF8120064
:10109000BDF81600ADF81400BDF81800ADF8160044
:1010A00018480088ADF81800002407E004A830F8BC
:1010B000140001A921F81400601CC4B2052CF5DB52
:1010C000052101A801F05CFD0646BE420ADC4FF096
:1010D00000084FF480410D48FFF7D0FC40210C4838
:1010E000FFF7CAFC01F088FC0748007808B100202F
:1010F00059E7B8F1000FBBD1012054E703000020ED
:1011000035000020060000202000002000100240D2
:10111000000802403EB541F6FF740121080700F0C7
:10112000EBF8012000F082F8002000F061FB45F2AE
:101130005001884231D0012000F0A2F904E0601C87
:1011400084B20A2001F0DAFC412000F079F900288D
:10115000F5D00CB901203EBD4FF4807000F0ACF921
:10116000012000F0A3F97F200190FF2002900020D1
:101170000090684600F00AFB002338223B2117202C
:1011800000F0EBFC012313220B21112000F0D3FC13
:1011900045F25001002000F031FD0020DBE77047F0
:1011A00070B5002100230F22C4781CB3174C2468AB
:1011B00004F4E064C4F5E064C4F30721C1F104045D
:1011C000E3B20A4144789C40E1B284781440214360
:1011D0000C07210E0E4C05786155047804F01F05AC
:1011E0000124AC4005786D11AD0005F1E025C5F88E
:1011F000004109E0047804F01F050124AC40054DCE
:101200000678761145F8264070BD00000CED00E030
:1012100000E400E080E100E002490143024A11607D
:10122000704700000000FA050CED00E0014908627B
:101230007047000000000E427047000070B5204863
:10124000008820490988401A1F49097890FBF1F06D
:1012500086B21B4801881D480088FFF74DFE1C48D8
:10126000007808B1002070BD0025012422E025B9D6
:1012700018480088FFF73EFD03E014480088FFF798
:1012800039FD85F001051248007808B10020EAE731
:101290000D480078844206DA0949098806FB1411D2
:1012A00088B2FFF741FE0A48007808B10020DAE76B
:1012B000601CC4B2044800788442D8DD0120D2E723
:1012C000120000201600002018000020100000204E
:1012D000200000201400002029B1064A12680243B1
:1012E000044B1A6004E0034A12688243014B1A60FF
:1012F000704700003038024029B1064A12680243A4
:10130000044B1A6004E0034A12688243014B1A60DE
:10131000704700004038024029B1064A1268024373
:10132000044B1A6004E0034A12688243014B1A60BE
:10133000704700004438024029B1064A126802434F
:10134000044B1A6004E0034A12688243014B1A609E
:101350007047000024380240F0B50021002200242C
:10136000022500260223324F3F6807F00C0121B10D
:10137000042905D0082937D105E02E4F076036E053
:101380002D4F076033E02A4F3F1F3F68C7F3805659
:10139000274F3F1F3F6807F03F036EB1264FB7FB53
:1013A000F3F7DFF88CC0ACF1040CDCF800C0CCF330
:1013B000881C07FB0CF40CE01E4FB7FBF3F7DFF8BB
:1013C00070C0ACF1040CDCF800C0CCF3881C07FB47
:1013D0000CF4174F3F1F3F68C7F301477F1C7D0088
:1013E000B4FBF5F7076002E0124F076000BF00BFD3
:1013F0000F4F3F6807F0F0010909104F7A5C07684A
:10140000D74047600A4F3F6807F4E051890A0B4F05
:101410007A5C4768D7408760054F3F6807F46041B2
:10142000490B064F7A5C4768D740C760F0BD0000A3
:10143000083802400024F40000127A004C0000201A
:1014400010B501460022002300204A11012A02D1D2
:101450000A4C236808E0022A03D1084C7034236840
:1014600002E0064C7434236801F01F02012494400A
:101470001C400CB1012000E0002010BD00380240EB
:101480000021094A11701170012802D0042808D1E6
:1014900003E00121044A117004E00521024A1170A1
:1014A00000E000BF00BF704770380240014908608B
:1014B000704700003C0E4742002100F44072B2F534
:1014C000407F08D1094A116821F4F811084A024006
:1014D0001143064A1160054A68321268C0F30B03D3
:1014E0001A43024B68331A60704700000838024004
:1014F000FFFCFF0F38B502460024009400230020B3
:10150000CA24184D2C6053242C6041B1154C1C3C4E
:1015100024681443134D1C3D2C6001201EE0114C27
:101520001C3C246894430F4D1C3D2C6000BF0D4CA7
:10153000183C246804EA1223009C641C0094009C5C
:10154000B4F5803F01D0002BF1D0064C183C246844
:1015500004EA12240CB9002000E00120FF24014D10
:101560002C6038BD2428004010B54FF4807000F086
:101570009FF8012804D105490870000200F022F804
:101580004FF40030FFF7B4F910BD00002200002036
:10159000014600BF080900EB8000420001F00F0087
:1015A0001044C0B270470146002204E0501CC2B291
:1015B000A1F10A00C1B20A29F8DA100741EA106065
:1015C0007047000081B241F08001044A126802F0C5
:1015D000800262EA0101014A116070470C28004054
:1015E000002101098AB242F08002044B1B6803F01B
:1015F000800363EA0202014B1A6070470C28004026
:1016000008B50022009200200021104A126802F062
:101610004002CAB9421E0D4B1A6000BF0B4A126845
:1016200002F04001009A521C0092009AB2F5803FED
:1016300001D00029F2D0054A126802F040020AB136
:10164000012002E0002000E0012008BD0C2800403D
:101650000348006820F080000149086070470000DE
:101660000C28004070B506460C4600250E48006860
:101670000E4900EA0105280CE070C5F304206070F3
:1016800005F03F00A070C5F3423020705EB9E078ED
:10169000FFF77EFFE0706078FFF77AFF6070A07858
:1016A000FFF776FFA07070BD042800403FFFFF00E9
:1016B00010B5014600200022054B1B68054C03EACB
:1016C000040202EA01030BB1012000E0002010BD7A
:1016D0000C2800407F3F010070B506460C460025EF
:1016E0000F4800680F4900EA0105C5F30540207066
:1016F000C5F30620607005F07F00A07005F480003F
:10170000000CE0705EB92078FFF742FF207060782F
:10171000FFF73EFF6070A078FFF73AFFA07070BD42
:10172000002800407F7F7F00CA22174B1A60532297
:101730001A6091B1144A1C3A126820F004031A434B
:10174000114B1C3B1A60104A1C32126800F0040353
:101750001A430D4B1C331A6011E00B4A1C3A1268F5
:1017600020F004039A43084B1C3B1A60064A1C32C3
:10177000126800F004039A43034B1C331A60FF22E3
:10178000014B1A60704700002428004030B5044621
:101790000025CA201549086053200860FFF730FF74
:1017A00000B91DE011481C38006820F040000F49C6
:1017B0001C39086008460068216808430B491C3939
:1017C00008600A491439A068086008460068A188C2
:1017D00040EA0140054914390860FFF739FF012547
:1017E000FF2002490860284630BD00002428004040
:1017F00008B501460020009004480090009800EBD6
:10180000810000900098006808BD0000502800404A
:101810002DE9F04105460E461446002765B93648C5
:10182000006800F0400000B102E00020E07000BF5E
:10183000A06800B919E018E02F48006800F04000E7
:1018400020B12078FFF7A4FE074602E00020E070F8
:1018500000BFA06820B9207BFFF79AFE074604E08E
:10186000207BFFF795FE074600BF95B12078000466
:10187000617840EA0120A1780843E17840EA01401C
:10188000217B40EA0160A1680843616840EA0107E2
:101890001BE02078FFF787FE4FEA00486078FFF7EB
:1018A00082FE48EA0028A078FFF77DFE48EA00089B
:1018B000E07848EA0048207BFFF775FE48EA0060C0
:1018C000A1680843616840EA0107CA200A491C313F
:1018D000086053200860B6F5807F03D106481430B5
:1018E000076002E0044818300760FF2002491C31FD
:1018F0000860BDE8F0810000082800402DE9F041B3
:1019000005460C46002600274DB9607800F010000F
:10191000102804D1607820F010000A30607005B9FA
:1019200008E06078FFF734FE0646A078FFF730FE47
:10193000064600BF55B1E0780004617840EA012016
:10194000A1780843217840EA413611E0E078FFF7BA
:101950002AFE4FEA00486078FFF725FE48EA002893
:10196000A078FFF720FE48EA0008207848EA4036D1
:10197000CA201249086053200860FFF741FE08B9E9
:10198000002714E00E4830400C4920390860FFF76A
:101990005FFE0A481C38006800F0200030B900F0F3
:1019A000FDF808B9002702E0012700E00127FF2029
:1019B000024908603846BDE8F08100002428004054
:1019C0003FFFFF002DE9F04105460C4600260027A9
:1019D0004DB92E48006800F0400000B102E0002040
:1019E000E07000BF0DE02948006800F0400020B121
:1019F0002078FFF7CDFD064602E00020E07000BF32
:101A000000BF55B120780004617840EA0120A17838
:101A10000843E17840EA014611E02078FFF7C3FD72
:101A20004FEA00486078FFF7BEFD48EA0028A0783A
:101A3000FFF7B9FD48EA0008E07848EA0046CA2006
:101A400012491C31086053200860FFF7D9FD08B91E
:101A5000002713E00E4830400C4908390860FFF7B2
:101A6000F7FD0A48006800F0200030B900F096F851
:101A700008B9002702E0012700E00127FF20034901
:101A80001C3108603846BDE8F0810000082800409D
:101A90007F7F7F00F0B589B004460D4616461F468D
:101AA00000214FF48070FFF725FD8DF808508DF868
:101AB00009608DF80A7000208DF80B0002980390E1
:101AC0004FF000400490002005908DF8184003AAC4
:101AD0004FF48071FFF79CFE4FF48050FFF780FDBC
:101AE0004FF40030FEF704FF01210803FFF71CFE4E
:101AF00001210802FFF7FEFC4FF4003007900020A0
:101B00008DF8200008208DF8210001208DF822009A
:101B100007A8FEF7F3FE29208DF8040002208DF8B7
:101B200005008DF8060001208DF8070001A8FFF7D9
:101B300037FB09B0F0BDF8B504460D4617461E4602
:101B40008DF802708DF801508DF800608DF803401B
:101B500069460020FFF7D2FEF8BDF8B504460D46F1
:101B600017461E468DF800408DF801508DF8027022
:101B70008DF8036069460020FFF724FFF8BD10B51B
:101B80004FF48060FFF794FD012802D18002FFF737
:101B900019FD4FF48000FEF7ABFE10BD08B5002222
:101BA000009200200021CA22134B1A6053221A60AF
:101BB000114A183A126822F0A0020F4B183B1A6023
:101BC00000BF0D4A183A126802F02001009A521C18
:101BD0000092009AB2F5003F01D00029F1D0064AE8
:101BE000183A126802F020020AB1012000E0002039
:101BF000FF22014B1A6008BD2428004008B50022CE
:101C00000092044A0092009A02EB80020092009A2D
:101C1000116008BD502800407047000030B5002218
:101C20008B071C0F0F2303FA04F20B4B8C1053F895
:101C300024309343084C8D1044F8253023468C10F3
:101C400053F824308C07240F00FA04F42343024C89
:101C50008D1044F8253030BD083801402DE9F041A1
:101C60002548008825490988401A2549097890FBAC
:101C7000F1F086B223480078401E1F49098806FB10
:101C8000101087B2394620480088FFF735F91F4801
:101C9000007810B10020BDE8F0810025012424E087
:101CA00045B9194909881A4A1288891A88B2FFF772
:101CB00021F803E014480088FFF71CF885F00105BF
:101CC0001248007808B10020E5E70D48007884420A
:101CD00004DA06FB147188B2FFF726F90B48007886
:101CE00008B10020D7E7601CC4B20A4800788442DB
:101CF000D6DD0120CFE700001200002016000020F2
:101D000018000020280000202400002020000020CF
:101D100026000020290000200CB500200190009032
:101D20003448006840F480303249086000BF3148D0
:101D3000006800F4003000900198401C0190009869
:101D400018B90198B0F5A04FF1D12A48006800F405
:101D5000003010B10120009001E0002000900098B8
:101D6000012846D123484030006840F08050214986
:101D7000403108602048006840F440401E49086037
:101D80001C48083000681B49083108600846006894
:101D900040F4004008600846006840F4A050086025
:101DA0001648091F0860081F006840F08070091F6E
:101DB000086000BF0F48006800F000700028F9D0EC
:101DC00040F205700E4908600A480830006820F0AB
:101DD00003000849083108600846006840F0020026
:101DE000086000BF03480830006800F00C000828B5
:101DF000F8D10CBD00380240007000400854400784
:101E0000003C0240042808D14FF0E021096941F06C
:101E100004014FF0E022116107E04FF0E021096971
:101E200021F004014FF0E02211617047704700007B
:101E300010B51548006840F4700013490860134855
:101E4000006840F001001149086000200F49083186
:101E500008600E4800680E4908400C4908600D48AB
:101E6000091D0860081F006820F48020091F086011
:101E7000002006490C310860FFF74EFF4FF000606C
:101E800001498039086010BD88ED00E0003802404B
:101E9000FFFFF6FE1030002410B501213D4800F090
:101EA000D8F8012870D13C480088401C80B23A49DB
:101EB0000880B0F5FA7F0DDB00200880012137484B
:101EC000FEF7DEFD36490020FFF706FC354900200D
:101ED000FFF7C8FB34480078F0B134480088401C54
:101EE00080B232490880B0F5FA7F04DB0020088018
:101EF000442001F095F92E480088401C80B22C49FE
:101F00000880B0F5FA6F07DB4FF6FF7029490880AB
:101F10004FF4FA602649088027480078F0B1274836
:101F20000088401C80B225490880B0F5FA7F04DBA8
:101F300000200880442001F0D7F921480088401C87
:101F400080B21F490880B0F5FA6F07DB4FF6FF70CB
:101F50001C4908804FF4FA60194908801A48007833
:101F600090B11A480088401C18490880084600882B
:101F7000052809DB00201449087014490880144919
:101F800008700120134908700121024800F052F83E
:101F900010BD0000000400403A000020000802408C
:101FA000080000200C000020020000203C0000205F
:101FB0004000002004000020030000203E0000201C
:101FC00042000020060000204600002044000020BF
:101FD00038000020370000207FB505460C4601215F
:101FE0000220FFF789F90295ADF804400020ADF812
:101FF0000600ADF80C0001A90D4800F045F80122DB
:1020000011460B4800F036F80121094800F015F898
:102010001D208DF8000001208DF8010003208DF8AF
:10202000020001208DF803006846FFF7B9F87FBD74
:1020300000040040CA430282704721B1028842F086
:102040000102028004E002884FF6FE731A4002800B
:10205000704730B50246002000230024158A05EAA7
:102060000103958905EA010413B10CB1012000E0D8
:10207000002030BD1AB183890B43838102E083893C
:102080008B4383817047000000220288184B9842DE
:102090000ED0184B98420BD0B0F1804F08D0164BA1
:1020A000984205D0154B984202D0154B984204D166
:1020B0004FF68F731A404B881A43124B984207D041
:1020C000114B984204D04FF6FF431A400B891A4334
:1020D00002804B68C3620B880385054B984202D08F
:1020E000044B984201D18B7A038601238382704787
:1020F00000000140000401400004004000080040CE
:10210000000C0040001000400014004010B540F2E8
:1021100025510B4800F005F988B1094800F0BAF9DB
:10212000C4B2084801780078401C064A107006487E
:10213000445400200549088001200549087010BD5D
:10214000005000403800002084000020440000209F
:102150004600002010B500F01AF8142000F092FF9D
:1021600000F001F810BD10B5652000F08BFF6E2067
:1021700000F088FF642000F085FF10BD10B500F06E
:1021800006F8152000F07EFFFFF7EDFF10BD10B53B
:10219000732000F077FF742000F074FF612000F0DE
:1021A00071FF722000F06EFF742000F06BFF10BD15
:1021B00010B5FFF7ECFF172000F064FF15490C88FD
:1021C000E11704EB1161C1F3072000F05BFF114937
:1021D0000C88E11704EB11610912A4EB0121C8B2CC
:1021E00000F050FF0C490C88E11704EB1161C1F3BA
:1021F000072000F047FF08490C88E11704EB116144
:102200000912A4EB0121C8B200F03CFFFFF7ABFFBD
:1022100010BD0000040000200600002010B540F2B0
:102220002551044800F07DF818B1024800F032F959
:10223000C4B210BD0010014010B540F22551114844
:1022400000F06FF8E8B10F4800F024F9C4B2442C54
:1022500002D100200C4908700B4801780078401C1E
:10226000094A10700948445410460078102808DBC9
:10227000002011460870012005490870002005491A
:10228000088010BD00440040340000205C000020A5
:10229000330000204000002010B540F225511148C5
:1022A00000F03FF8E8B10F4800F0F4F8C4B2442C55
:1022B00002D100200C4908700B4801780078401CBE
:1022C000094A10700948445410460078102808DB69
:1022D00000201146087001200549087000200549BA
:1022E000088010BD0048004036000020700000202B
:1022F000350000204200002001F40072B2F5007F9A
:1023000000D100BFCA430280704721B1828942F4E4
:102310000052828104E082894DF6FF731A40828167
:10232000704770B50246002400230025002040F6C7
:102330006A16B14200D100BFC1F3421501F01F037C
:10234000012606FA03F3012D02D19689334006E0F7
:10235000022D02D1168A334001E0968A33400C12D6
:10236000012606FA04F41688344013B10CB101209A
:1023700000E0002070BDF0B50346002400260025D3
:10238000002040F66A17B94200D100BF1846C1F3D9
:10239000421401F01F06012707FA06F5012C01D1AE
:1023A0000C3004E0022C01D1103000E014301AB1DE
:1023B00007682F43076002E00768AF430760F0BD7E
:1023C0002DE9FF4705460E460024A14600BFA04662
:1023D000B08900B100BF2C8A24F44054F088044333
:1023E0002C82AC8941F20C608443B0883189084367
:1023F000718908430443AC81AC8A24F44074B089E9
:102400000443AC826846FEF7A7FF2048854202D00D
:102410001F48854202D1DDF80C9001E0DDF80890FC
:10242000A88900F4004040B109EBC90000EB091095
:1024300031684900B0FBF1F707E009EBC90000EB98
:10244000091031688900B0FBF1F76420B7FBF0F0A8
:1024500004012009642101FB1078A88900F40040E0
:1024600040B1322000EBC800B0FBF1F000F00700F3
:10247000044308E0322000EB08106421B0FBF1F0C7
:1024800000F00F0004432C81BDE8FF8700100140DD
:102490000014014001468888C0F30800704700BF5F
:1024A000FEE7000070B5FC48007873287ED1FA483A
:1024B00040787428FAD1F84880786128F6D1F64837
:1024C000C0787228F2D1F44800797428EED1F2482D
:1024D00040790C286BD009DC0C2830D2DFE800F002
:1024E0002F1F303A8E9FB0CEE3FAF9F812287CD035
:1024F00008DCA0F10D000528EFD2DFE800F0F0EFD6
:10250000EEEDEC00412871D004DC13286FD0402898
:1025100015D1A4E142286BD04328F9D1F0E1DE4B7C
:102520001A7AD97998790123FFF705FBDA4A917A6B
:10253000507A00231A46FFF710FBFFF70BFEECE181
:10254000D548C27981791E230120FFF7A3FAFFF74E
:1025500001FEE2E1D048C179807901EB0020CF494A
:102560000880CD48417A007A01EB0020CC490880F0
:10257000C948C17A807A01EB0020CA490880C64860
:10258000417B007B01EB0020C7490880C248807B6B
:10259000C6490870C14801880420FFF72FFBC048D6
:1025A00001880520FFF72AFBBE4801E0B6E1DFE025
:1025B00001880620FFF722FBBB4801880720FFF7B0
:1025C0001DFBBA4801780820FFF718FB45F25001BF
:1025D0000920FFF713FB0120B5490870FFF7D7FD6D
:1025E000182000F04FFD012003E01EE13BE126E151
:1025F00045E100F047FDFFF7B6FD8EE14FF4807135
:10260000AC48FEF73BFA4FF4967000F077FA4FF4BF
:102610008061A848FEF730FAFFF79CFD7DE14FF49A
:102620008061A448FEF72AFA4FF4967000F066FA2B
:102630004FF480719F48FEF71FFAFFF78BFD6CE1A6
:102640004FF480619B48FEF719FA4FF48071994866
:10265000FEF714FA4FF480419648FEF70FFA4FF454
:1026600080519448FEF70AFA40219348FEF704FA95
:10267000012092490870FFF76DFD4EE14FF4805143
:102680008C48FEF7FBF94FF4967000F037FA4FF4E0
:1026900080418848FEF7F0F940218748FEF7EEF9BF
:1026A000FFF758FD39E14FF480418248FEF7E6F923
:1026B0004FF4967000F022FA4FF480517D48FEF7F7
:1026C000DBF940217C48FEF7D9F9FFF743FD24E10F
:1026D00027E023E004E08EE087E067E05CE051E083
:1026E0004FF480617348FEF7C9F94FF48071714867
:1026F000FEF7C4F94FF480416E48FEF7BFF94FF47E
:1027000080516C48FEF7BAF940216B48FEF7B4F9E6
:1027100001206A490870FFF71DFDFEE0FFF71AFD72
:10272000FBE05D48C179807901EB002064490880B5
:102730005948417A007A01EB0020624908805648E6
:10274000C17A807A01EB00205F4908805C480188EB
:102750000A20FFF753FA5B4801880B20FFF74EFA77
:10276000594801880C20FFF749FAFFF7F3FCD4E041
:1027700053480088FDF7F2FF012054490870FFF725
:10278000E9FCCAE04F480088FDF7E8FF02204F4906
:102790000870FFF7DFFCC0E04B480088FDF7DEFF64
:1027A00003204A490870FFF7D5FCB6E0052109204F
:1027B000FEF782F9044640F2DD518C4201DB01252F
:1027C00000E00225FFF7E3FC162000F05BFC384830
:1027D000007800F057FC284600F054FC3B48007895
:1027E00000F050FCFFF7BFFC97E000214FF4807031
:1027F000FEF780FE91E02848C179807901EB002046
:10280000334908802448417A007A01EB002031499D
:1028100008802148807A304908701F48C07A2F49C3
:10282000087001202E49087077E001202D490870BA
:102830002D4908702D490870FFF78CFC6DE00020D1
:10284000284908702849087028490870432000F07A
:10285000E7FC432000F048FDFFF77CFC5DE0012031
:102860002349087059E0FFF792FC192000F00AFC98
:102870002048007800F006FCFFF775FC4DE00648A4
:10288000C179807901EB00201B49088001201B4998
:102890000870FFF75FFC40E084000020100000207B
:1028A0001200002014000020160000201800002054
:1028B0001900002000100240000802402000002003
:1028C0001A0000201C0000201E0000202A0000200A
:1028D00024000020260000202800002029000020DD
:1028E0002300002000000020020000200300002040
:1028F00022000020210000202E0000202B000020BC
:102900000848C179807901EB00200749088001203F
:1029100006490870FFF71EFC00BF01E0FFF72EFC20
:10292000012070BD84000020300000202C00002019
:1029300010B52B48007850B101202A4908700020BA
:1029400027490870FDF736FE002026490870264802
:10295000007850B1012023490870002022490870F6
:10296000FFF7A0FD00201F4908702048007870B1D3
:1029700001201C4908701E480078112804D100204D
:102980001B490870FFF714FC00201649087001204D
:10299000FEF726F90446072C1FD2DFE804F01E04D8
:1029A00005060C12180018E017E04FF4805111488A
:1029B000FEF764F811E04FF480410E48FEF75EF830
:1029C0000BE04FF480710B48FEF758F805E04FF428
:1029D00080610848FEF752F800BF00BF10BD00003C
:1029E00035000020210000203700002000000020DA
:1029F000010000200010024010B52B48007850B1B3
:102A000001202A490870002027490870FDF768FD59
:102A10000020264908702648007850B1012023493B
:102A20000870002022490870FFF73CFD00201F4974
:102A300008702048007870B101201C4908701E48B9
:102A40000078112804D100201B490870FFF7B0FB63
:102A50000020164908700120FEF7C2F80446072C32
:102A60001FD2DFE804F01E0405060C12180018E05F
:102A700017E04FF480511148FEF700F811E04FF4D1
:102A800080410E48FDF7FAFF0BE04FF480710B48D0
:102A9000FDF7F4FF05E04FF480610848FDF7EEFF15
:102AA00000BF00BF10BD0000330000202100002047
:102AB000370000200000002001000020001002402C
:102AC00010B504466FF00400FFF79CF9E11704EB22
:102AD0005171C1F3C701074A11701046007800EB2D
:102AE0004001C1EBC0104FF6FF7101EAC00002497E
:102AF000088010BD480000204A00002070B5044640
:102B00004FF4077094FBF0F0C6B24FF4077094FBDB
:102B1000F0F100FB114085B205E04FF4077000F0C2
:102B200009F8701EC6B2002EF7D115B1284600F084
:102B300001F870BD0146114A12884A434FF0E02364
:102B40005A6100229A611A46126942F001021A6122
:102B500000BF4FF0E022106900F001021AB100F44A
:102B60008032002AF5D04FF0E022126922F00102F3
:102B70004FF0E0231A6100229A6170474A0000205A
:102B800070B502460B4600241AE0002112E032F82C
:102B90001160481C32F81000864209DD32F81150ED
:102BA000481C32F8100022F81100481C22F810507E
:102BB000481CC1B2181B401E8842E8DC601CC4B22D
:102BC000581EA042E1DC908870BD000010B50420C2
:102BD000FEF70EFE224908800520FEF709FE214976
:102BE00008800620FEF704FE1F4908800720FEF734
:102BF000FFFD1E4908800820FEF7FAFD1C490870F9
:102C00000920FEF7F5FD45F25001884203D101206D
:102C10001849087002E00220164908700A20FEF7E1
:102C2000E7FD154908800846008810B94FF47A700E
:102C300008800B20FEF7DCFD10490880084600885C
:102C400010B94FF4FA6008800C20FEF7D1FD0C4952
:102C500008800846008810B940F6B830088010BDDA
:102C60001000002012000020140000201600002098
:102C700018000020190000201A0000201C0000206D
:102C80001E0000204FF4A060FEF7C6FAFEF742FADD
:102C9000A820FFF715FF4FF4E13000F0FFF94FF4E3
:102CA000964000F055FA4FF4964000F0C7FA4FF402
:102CB000E13000F089F9FDF7F3FF42F2CF0109207E
:102CC000FFF78AF9FDF71EFDFDF710FFFDF7CCFDBC
:102CD000FDF7C4FBFFF77AFF00209F4908709F496A
:102CE00008709F4908709F4908709F4908809F4954
:102CF00008809F4908809F4908804FF6FF709E49D1
:102D000008809E49088000209D4908809D490870E0
:102D10009D4908709D4908709D4908809D4908702B
:102D20009D4908709D49087001209D4908709D4883
:102D30000088FDF713FD00209B4908709B4908702F
:102D400008E19048007850B10120984908700020AF
:102D50008C490870FDF7C4FB0020944908708A482C
:102D6000007850B101209149087000208649087010
:102D7000FDF720FC00208D4908708448007850B190
:102D800001208A490870002080490870FFF78AFBFB
:102D90000020864908707048007870B1012083498E
:102DA00008706E480078112804D100206B49087023
:102DB000FFF7FEF900207D4908700120FDF710FFA4
:102DC0000446072C1FD2DFE804F01E0405060C128F
:102DD000180018E017E04FF480517548FDF74EFEDB
:102DE00011E04FF480417248FDF748FE0BE04FF4CC
:102DF00080716F48FDF742FE05E04FF480616C483A
:102E0000FDF73CFE00BF00BF6348007878B30120A7
:102E10006649087000206049087001204E4908701A
:102E20004F4908704F49087000205F490870FEF74D
:102E300005FA00205C490870474908704849087045
:102E400048490870432000F0EBF9432000F04CFAA9
:102E500001215848FDF710FE4FF4FA70FFF74EFEBF
:102E600001215448FDF70AFE0020504908704B48E4
:102E7000007878B301204D49087000204749087058
:102E8000012035490870364908703649087000201D
:102E900045490870FEF7E2FE0020434908702E49BC
:102EA00008702F4908702F490870432000F0B8F9C6
:102EB000432000F019FA01213E48FDF7DDFD4FF4F3
:102EC000FA70FFF71BFE01213A48FDF7D7FD0020FD
:102ED0003649087038480078E0B10120334908705D
:102EE0000020354908703049087034480088FDF7E3
:102EF00001FF00202C4908702C49087001212D4841
:102F0000FDF7BAFD4FF4FA70FFF7F8FD01212948EB
:102F1000FDF7B4FD2A480078E0B10120234908708C
:102F20000020274908702049087026480088FDF7CE
:102F3000FBFF00201C4908701C49087001211D4836
:102F4000FDF79AFD4FF4FA70FFF7D8FD01211948FB
:102F5000FDF794FDF5E600000000002001000020D0
:102F600002000020030000203C0000203E00002062
:102F70004000002042000020040000200600002045
:102F80003A000020330000203500002037000020E8
:102F900044000020460000202200002023000020E2
:102FA0002A0000201A00002020000020210000201C
:102FB00000100240000402402B0000202E000020E0
:102FC0002C0000203000002010B588B004460121FC
:102FD0000C20FEF781F901210805FEF78DF9082282
:102FE00002212548FDF71CFD08220C212348FDF78E
:102FF00017FD0420069002208DF81C008DF81D009E
:1030000000208DF81E0001208DF81F0006A91A4827
:10301000FDF7BEFC4FF48050069006A91748FDF757
:10302000B7FC02940020ADF80C00ADF80E00ADF82E
:103030001000ADF814000C20ADF8120002A91048E1
:10304000FFF7BEF901210E48FFF75FF9012240F2B8
:1030500025510B48FFF78FF935208DF8040001202A
:103060008DF805008DF806008DF8070001A8FEF721
:1030700097F808B010BD0000000C024000080240A4
:103080000050004000BF0449098801F040010029B8
:10309000F9D00149888070470050004010B588B0D1
:1030A000044601210846FEF717F901211020FEF71A
:1030B00033F9072209212448FDF7B2FC07220A212F
:1030C0002148FDF7ADFC4FF4C060069002208DF85A
:1030D0001C008DF81D0000208DF81E0001208DF8C9
:1030E0001F0006A91848FDF753FC02940020ADF814
:1030F0000C00ADF80E00ADF81000ADF814000C2077
:10310000ADF8120002A91148FFF75AF901210F4842
:10311000FFF7FBF840210D48FFF7EEF8012240F2DF
:1031200025510A48FFF727F925208DF804000320D0
:103130008DF805008DF8060001208DF8070001A824
:10314000FEF72EF808B010BD00000240001001404C
:1031500030B587B0054601210846FEF7BDF80121CC
:103160004804FEF7C9F8072202212948FDF758FC58
:10317000072203212648FDF753FC0C20059002206E
:103180008DF818008DF8190000208DF81A00012024
:103190008DF81B0005A91E48FDF7FAFB01950020DC
:1031A000ADF80800ADF80A00ADF80C00ADF810005D
:1031B0000C20ADF80E0001A91648FFF701F9012116
:1031C0001448FFF7A2F840211248FFF795F80122B2
:1031D00040F225510F48FFF7CEF826208DF8000069
:1031E00003208DF801008DF8020001208DF8030006
:1031F0006846FDF7D5FF002007490870002403E06A
:10320000002006490855641C142CF9DB07B030BDBA
:103210000000024000440040340000205C00002018
:1032200000BF0549098801F040010029F9D0024991
:10323000091D0880704700000044004010B588B0A8
:10324000044601210220FEF747F801218804FEF719
:1032500053F807220A212248FDF7E2FB07220B213F
:103260001F48FDF7DDFB4FF44060069002208DF80B
:103270001C008DF81D0000208DF81E0001208DF827
:103280001F0006A91648FDF783FB02940020ADF845
:103290000C00ADF80E00ADF81000ADF814000C20D5
:1032A000ADF8120002A90F48FFF78AF801210D4876
:1032B000FFF72BF8012240F225510A48FFF75BF88F
:1032C00027208DF8040003208DF805008DF80600F6
:1032D00001208DF8070001A8FDF762FF08B010BDBE
:1032E000000402400048004000BF0549098801F081
:1032F00040010029F9D00249091D088070470000EB
:10330000004800402DE9C04130B4DFF8A0C23CEADB
:10331000111418BF3CEA131400F0EC8081EA030595
:103320001CEA111444EAD57418BF1CEA131500F006
:10333000C780A4EB05044FF0004545EAC12145EAEA
:10334000C32341EA505143EA525304F17F74994236
:1033500004F500344FEAC0204FEAC22208BF904271
:1033600000F09C804FEA13650FF24016765D4FEA3D
:10337000134506FB05F7C7F1807706FB07F74FEA11
:10338000D737A7FB03687642C8F58038A7FB06CE7F
:1033900038BFA8F1010807FB08E64FF0000EA6FBB6
:1033A000028CE6FB03CEDCF1000CCEF1004E38BF00
:1033B000AEF1010EA6FB0C584FF000074FF00005D0
:1033C000E6FB0E87A1FB08C6A0FB07CE16EB0E0698
:1033D00045F10005E1FB076515F1E04E7EBFA4F560
:1033E00080345FEA46066D4116F1800745F100051D
:1033F0004FEA17274FEA066647EA0567A6F1DE4659
:10340000B6F1805F4FEA15251FD9384624F0010C2C
:1034100005EBC471BCF1FE6F01EB0C1102D8F0BCDE
:10342000BDE8008124425CBF01F5801E9EEAC47F96
:1034300002D4F0BCBDE80081244238D4F0BCA1F134
:10344000C041BDE8004100F0EDB94FEAD22242EAA6
:1034500043524FEAD323A7FB02864FEAD02040EA2B
:10346000415007FB03661EEA0E0F4FEAD12105FB10
:10347000026658BFA6EB0056B6EB00564FEA520E56
:103480004EEAC37E18EB0E0E56EB530EBDD518EB6D
:1034900002085E417F1C55F10005B6E74FF4801528
:1034A0004FF000074FF000064FF00008ADE7F0BC0A
:1034B0004FF0000001F1C04101F00041BDE8008182
:1034C00011EA0C1F0CEA131500D00CE013EA0C1FD4
:1034D00000F025804FF00000F0BC81EA030101F00C
:1034E0000041BDE80081F0BCBDE8004181EA030174
:1034F00000F098B9F0BCBDE8004170B500F044F9A7
:10350000097EFC3E00F007B881EA03014FF000009D
:1035100001F00041704781EA030100F083B9F0BC7B
:10352000BDE800414FF0000021497047FFFDFBF965
:10353000F7F5F4F2F0EEEDEBE9E8E6E4E3E1E0DEE6
:10354000DDDBDAD8D7D5D4D3D1D0CFCDCCCBCAC858
:10355000C7C6C5C4C2C1C0BFBEBDBCBBBAB9B8B77F
:10356000B6B5B4B3B2B1B0AFAEADACABAAA9A8A872
:10357000A7A6A5A4A3A3A2A1A09F9F9E9D9C9C9B40
:103580009A999998979796959594939392919190EB
:103590008F8F8E8E8D8C8C8B8B8A8989888887877C
:1035A0008685858484838382828181800000FF07F1
:1035B0000000F87F4FEA1153A3F58063D3F11E0397
:1035C000A8BFD3F1200C08DB4FF0004242EAC12231
:1035D00052EA505232FA03F0704709420BD4102BD2
:1035E000C4BF0020704703F5787CBCF1FF3F05D0D5
:1035F0004FF0FF3070474FF00000704770B500F09B
:10360000C3F800BF4992248000207047F0E7B0FA69
:1036100080F310FA03F10AD0C3F11D0303F58063B0
:103620004FEA41504FEA035202EBD12170474FF06D
:1036300000007047DFF848C170B51CEA111E1EBFBC
:103640001CEA13159EEA0C0F95EA0C0F00F06F8030
:1036500081EA030423EA4C134EEAD47E21EA4C119A
:1036600041F4801143F48013AE44A1FB024CA0FB53
:103670000365AEF17F7E361955EB0C05A1FB034CBB
:103680004CF10003A0FB021C16EB0C06654153F144
:103690000003094218BF46F0010613F4007F0BD166
:1036A0004FEA03314FEA0530340341EA155140EA4D
:1036B00016506FF003020AE04FEAC3214FEAC5201B
:1036C000F40241EA555140EA56506FF0020202EB13
:1036D0002E4201EB025585EACE710AD05FEA440C16
:1036E00018BF24F0004450F1000041F1000120EA2D
:1036F000D47040F2FE7C624500D270BDA84214BF77
:103700004FF080444FF04044002E08BF0024BEF12B
:10371000806FA8BFA1F1C041BDE8704080F28280F7
:103720004FF0000001F1C04101F0004170479EEAF6
:103730000C0F0CEA131518BF95EA0C0F06D04FF0CA
:10374000000081EA030E0EF0004170BD00F01CF88D
:103750008900013E00F007B800F009B84FEA430CB9
:103760005FEA5C5C08D081EA030100F05BB84FEAD5
:10377000410C5FEA5C5CF6D14FF0000001497047F4
:103780000000FF070000F87F0EF1020E2EF0030E7E
:103790005EF8046B364205D4012A43EB030515F5A8
:1037A000001F12D8012841EB010C1CF5001F0CD89A
:1037B0000ED14FEAD17C15F5001F0CEB4C0C0CF12F
:1037C000020C08BF4CEBD37C04E04FF0080C01E086
:1037D0004FEAD37C0CEB4C0526FA05F606F00706FB
:1037E000B6F1040C06D20EEB860CBDE870404CF02E
:1037F000010C6047DFE80CF0090B02024FF00041BA
:103800004FF00000A1F5002170BD194610460128B7
:1038100051EB010418BFD4F5001484BF002001F05F
:10382000004170BD0808A0F500114FEA3101704752
:103830004FF04070E1EE100A704700005C3800085D
:10384000000000205C000000C4010008B838000837
:103850005C000020AC060000E00100080000000051
:103860000000000000000000000000000000000058
:103870000000000000000000000000000000000048
:103880000000000000000000000000000000010037
:103890000000000000000000000000000000000028
:1038A000000000000000000000000000010203040E
:0838B0000102030406070809E8
:040000050800018965
:00000001FF
