:020000040800F2
:10000000B00500209D0100081F0A0008170700081E
:100010008D070008DD0400084F2B000800000000D9
:100020000000000000000000000000005114000863
:100030006F05000800000000010B0008D52500082E
:10004000B7010008B7010008B7010008DD1100087A
:10005000B7010008B7010008B7010008B7010008A0
:10006000B7010008B7010008B7010008B701000890
:10007000B7010008B7010008B7010008B701000880
:10008000B7010008B7010008B7010008B701000870
:10009000B7010008B7010008B7010008B701000860
:1000A000B7010008B7010008B7010008B701000850
:1000B000B701000841260008B7010008B701000891
:1000C000B7010008B7010008B7010008B701000830
:1000D000B7010008A1280008C52800080D2900085C
:1000E000B7010008E50D0008B7010008B7010008D6
:1000F000B7010008B7010008B7010008B701000800
:10010000B7010008B7010008B7010008B7010008EF
:10011000B701000859280008B7010008B701000816
:10012000B7010008B7010008B7010008B7010008CF
:10013000B7010008B7010008B7010008B7010008BF
:10014000B7010008B7010008B7010008B7010008AF
:10015000B7010008B7010008B701000865290008C9
:10016000B7010008B7010008B7010008B70100088F
:10017000B7010008B7010008B7010008B70100087F
:10018000B7010008B7010008DFF80CD000F02EF826
:1001900000480047A9390008B005002006488047FC
:1001A00006480047FEE7FEE7FEE7FEE7FEE7FEE75C
:1001B000FEE7FEE7FEE7FEE7D92500088901000813
:1001C00030B50B46014600202022012409E021FA27
:1001D00002F59D4205D303FA02F5491B04FA02F524
:1001E0002844151EA2F10102F1DC30BD064C074D7A
:1001F00006E0E06840F0010394E8070098471034F7
:10020000AC42F6D3FFF7C4FF803D0008A03D0008D4
:1002100021B1826842F00102826003E0826822F02C
:1002200001028260704700000021084A1168084AF4
:100230001140D0E900231A4383681A43C3681A4364
:100240001143044AC2F8041370470000042301401C
:10025000E030FCFF002001400146C86C80B27047CE
:100260000246002013680B400BB1012000E0002083
:100270007047000030B50246002000235068104C43
:1002800020400D790C6844EA0524204350609068B2
:100290000C4C2040D1E903542C438D682C434D79FC
:1002A00044EA450420439060D06A20F470000C7D3D
:1002B000641EE4B2234340EA0350D06230BD000024
:1002C000FFFEFFFCFDF7FFC0F0B504460D46002021
:1002D0000021092D11DDE068A5F10A0606EB4607AD
:1002E000072606FA07F18843A5F10A0606EB46063B
:1002F00003FA06F10843E0600CE0206905EB4507CE
:10030000072606FA07F1884305EB450603FA06F1CE
:1003100008432061072A0FDA606B561E06EB86073A
:100320001F2606FA07F18843561E06EB860605FAD5
:1003300006F10843606322E00D2A0FDA206BD61F16
:1003400006EB86071F2606FA07F18843D61F06EB41
:10035000860605FA06F10843206310E0E06AA2F180
:100360000D0606EB86071F2606FA07F18843A2F161
:100370000D0606EB860605FA06F10843E062F0BDBD
:10038000816841F0804181607047000000B58DB008
:100390000121084600F018FC0121880200F034FC1D
:1003A00001200B9003208DF8300000208DF83300E1
:1003B0000BA9144800F00CF90121880200F034FC6C
:1003C00000214FF4806000F02FFC002007900A907D
:1003D0000990089007A8FFF727FF002001908DF8EB
:1003E00008008DF809000390059001208DF8180091
:1003F00001A90548FFF73EFF01210348FFF708FF69
:100400000DB000BD00000240002201401CB50121DA
:10041000084600F0D9FB0220009001208DF804006E
:1004200000208DF8060003208DF8050000208DF8CF
:1004300007006946034800F0CBF80221014800F0AC
:1004400032F91CBD0000024010B50221054800F041
:100450002CF9642003F0CEF80221024800F023F9C1
:1004600010BD00000000024010B50221154800F048
:100470001CF94FF47A7003F0BDF80221114800F026
:1004800012F94FF4967003F0B5F802210D4800F010
:100490000CF94FF4967003F0ADF80221094800F012
:1004A00002F94FF4967003F0A5F80221054800F018
:1004B000FCF84FF47A7003F09DF80221014800F037
:1004C000F2F810BD0000024010B5FFF7BDFF4FF479
:1004D000FA7003F08FF8FFF7B7FF10BD00BFFEE71B
:1004E00038B504460020009003F03AFA00F03CF9D9
:1004F00006208DF800008DF8014003220A4901F022
:10050000D5FE05220949062001F0D0FE02226946E7
:10051000062001F0CBFE03220549062001F0C6FEAD
:1005200003F0BEFB38BD00006D000020620000201B
:10053000670000202DE9F0410446DDE906674FF031
:10054000000CE046002501EB04201FFA80FC03EBC1
:1005500002201FFA80F807EB062085B2654504DD0E
:10056000454502DA0120BDE8F0810020FBE7704735
:1005700010B504461E2003F03DF80322064906206C
:1005800001F094FE03E0207803F07CFB641C2078EB
:100590000028F8D110BD00007000002010B50446FE
:1005A0001E2003F027F803220449062001F07EFEF6
:1005B000214603A002F02EFF10BD000070000020B5
:1005C000256400000149086070470000143C0140A8
:1005D000F0B50A4600210023002400BF3DE00125BC
:1005E00005FA01F3156805EA03049C4234D1056855
:1005F0004F000326BE40B543056015794E00B54057
:100600000668354305601579012D02D01579022D54
:1006100016D185684F000326BE40B54385605579E5
:100620004E00B540866835438560456801268E409A
:10063000B5434560456896798E40B6B2354345600E
:10064000C5684F000326BE40B543C560D5794E004E
:10065000B540C6683543C560491C1029BFD3F0BDFD
:10066000F0B5002300244D07ED0E02FA05F3CE107D
:1006700000F1200555F826504E07F70E0F26BE4014
:10068000B543CF1000F1200646F82750CE1000F1F8
:10069000200555F8265045EA0304CE1000F1200548
:1006A00045F82640F0BD4183704701837047426999
:1006B0004A4042617047000010B5044607230122FA
:1006C00021460848FFF700FE0648FFF759FE00BF25
:1006D00002210448FFF7C4FD0028F9D00148FFF7C4
:1006E000BBFD10BD002201402DE9F04107460C463C
:1006F0000025002608E03846FFF7DEFF0544052008
:1007000002F078FF701CC6B2A642F4DBB5FBF4F031
:1007100080B2BDE8F08100BFFEE700001CB50121FA
:10072000102000F051FA4FF44070009001208DF835
:10073000040000208DF8060003208DF8050001203C
:100740008DF8070069460748FFF742FF4FF48071B4
:100750000448FFF7AAFF4FF400710248FFF7A5FF16
:100760001CBD00000010024010B54FF40071064897
:10077000FFF799FF642002F03DFF4FF4007102483B
:10078000FFF793FF10BD00000010024000BFFEE71E
:100790007CB504460D461CA103C9CDE900012046E5
:1007A000E11704EB1161090A8DF80010E11704EB61
:1007B00011610912A4EB0121C9B28DF80110FFF7F4
:1007C000D3FF03F0CDF8642C03D0C82C01D0002057
:1007D0007CBD8DF8045003226946062001F066FDB9
:1007E00005220B49062001F061FD02220DF10301F3
:1007F000062001F05BFD03220649062001F056FDAC
:1008000003F04EFAE4E70000000048010000000099
:100810006200002067000020F0B585B004460D4658
:1008200003F09EF8642C04D0C82C02D0002005B040
:10083000F0BD2046E11704EB1161090A8DF80010A4
:10084000E11704EB11610912A4EB0121C9B28DF883
:10085000011048208DF8020073208DF803007420E9
:100860008DF8040061208DF8050072208DF80600D7
:1008700074208DF8070011208DF80800012000EB8E
:100880001540C0B28DF80900280A8DF80A00E8B2B8
:100890008DF80B009DF809009DF80A1008449DF89A
:1008A0000B100844C6B28DF80C6065208DF80D0061
:1008B0006E208DF80E0064208DF80F0005270DE0E6
:1008C000FFF752FF03F04CF810226946062001F0B2
:1008D000EDFC03F0E5F9012800D1A8E7002FEFD1E6
:1008E0000020A4E730B585B0044603F039F8642C45
:1008F00004D0C82C02D0002005B030BD2046E1173E
:1009000004EB1161090A8DF80010E11704EB116185
:100910000912A4EB0121C9B28DF8011048208DF80D
:10092000020073208DF8030074208DF8040061200C
:100930008DF8050072208DF8060074208DF80700F0
:1009400002208DF8080065208DF809006E208DF8D2
:100950000A0064208DF80B0005250DE0FFF704FF69
:100960000C226946062001F0A1FC02F0F9FF03F019
:1009700097F9012800D1BFE72800A5F10101CDB208
:10098000ECD100BFB8E73EB541F6FF74012108077E
:1009900000F02AF9012000F0A7F80121880400F0F6
:1009A00013F9012000F0A6F8002000F017FB45F233
:1009B0005001884231D0012000F0DAF904E0601CD7
:1009C00084B20A2002F016FE412000F0B1F900289E
:1009D000F5D00CB901203EBD4FF4807000F0E4F971
:1009E000012000F0DBF97F200190FF200290002021
:1009F0000090684600F0C0FA002338223B211720FF
:100A000000F0DAFB062307220421122000F0C2FBCB
:100A100045F25001002000F021FC0020DBE7704788
:100A200070B5002100230F22C4781CB3174C246832
:100A300004F4E064C4F5E064C4F30721C1F10404E4
:100A4000E3B20A4144789C40E1B2847814402143E7
:100A50000C07210E0E4C05786155047804F01F0533
:100A60000124AC4005786D11AD0005F1E025C5F815
:100A7000004109E0047804F01F050124AC40054D55
:100A80000678761145F8264070BD00000CED00E0B8
:100A900000E400E080E100E002490143024A116005
:100AA000704700000000FA050CED00E010B50C489E
:100AB000007838B100200A490870022002F060FB7B
:100AC000012010BD0748007838B1002005490870A2
:100AD000052002F055FB0120F3E70020F1E70000BC
:100AE000240000202C00002001490862704700000B
:100AF00000000E420149086070470000A4000E4249
:100B00007047000010B52E4800780B2856D2DFE859
:100B100000F006090C232A31383F464D540000F0FE
:100B200099FC4BE000F010FD48E0264800780128D1
:100B30000FD02448007802280BD0224800780328E0
:100B400007D020480078042803D01E4800780528E4
:100B500001D100F07FFC31E01A480078012801D172
:100B600000F078FC2AE017480078022801D100F054
:100B700071FC23E013480078032801D100F06AFCDF
:100B80001CE010480078042801D100F063FC15E057
:100B90000C480078052801D100F05CFC0EE0094803
:100BA0000078062801D100F055FC07E005480078E0
:100BB000072801D100F04EFC00E000BF00BF10BDCF
:100BC000610000200400002029B1064A1268024397
:100BD000044B1A6004E0034A12688243014B1A6016
:100BE000704700003038024029B1064A12680243BB
:100BF000044B1A6004E0034A12688243014B1A60F6
:100C0000704700004038024029B1064A126802438A
:100C1000044B1A6004E0034A12688243014B1A60D5
:100C2000704700004438024029B1064A1268024366
:100C3000044B1A6004E0034A12688243014B1A60B5
:100C40007047000024380240F0B500210022002443
:100C5000022500260223324F3F6807F00C0121B124
:100C6000042905D0082937D105E02E4F076036E06A
:100C70002D4F076033E02A4F3F1F3F68C7F3805670
:100C8000274F3F1F3F6807F03F036EB1264FB7FB6A
:100C9000F3F7DFF88CC0ACF1040CDCF800C0CCF347
:100CA000881C07FB0CF40CE01E4FB7FBF3F7DFF8D2
:100CB00070C0ACF1040CDCF800C0CCF3881C07FB5E
:100CC0000CF4174F3F1F3F68C7F301477F1C7D009F
:100CD000B4FBF5F7076002E0124F076000BF00BFEA
:100CE0000F4F3F6807F0F0010909104F7A5C076861
:100CF000D74047600A4F3F6807F4E051890A0B4F1D
:100D00007A5C4768D7408760054F3F6807F46041C9
:100D1000490B064F7A5C4768D740C760F0BD0000BA
:100D2000083802400024F40000127A00420000203B
:100D300010B501460022002300204A11012A02D1E9
:100D40000A4C236808E0022A03D1084C7034236857
:100D500002E0064C7434236801F01F020124944021
:100D60001C400CB1012000E0002010BD0038024002
:100D70000021094A11701170012802D0042808D1FD
:100D800003E00121044A117004E00521024A1170B8
:100D900000E000BF00BF70477038024001490860A2
:100DA000704700003C0E4742002100F44072B2F54B
:100DB000407F08D1094A116821F4F811084A02401D
:100DC0001143064A1160054A68321268C0F30B03EA
:100DD0001A43024B68331A6070470000083802401B
:100DE000FFFCFF0F10B54FF4807000F089F8012868
:100DF00002D1000200F01EF84FF40030FFF7E2FBD2
:100E000010BD014600BF080900EB8000420001F060
:100E10000F001044C0B270470146002204E0501C8D
:100E2000C2B2A1F10A00C1B20A29F8DA100741EAF8
:100E30001060704781B241F08001044A126802F0EC
:100E4000800262EA0101014A116070470C280040EB
:100E500008B50022009200200021104A126802F01A
:100E60004002CAB9421E0D4B1A6000BF0B4A1268FD
:100E700002F04001009A521C0092009AB2F5803FA5
:100E800001D00029F2D0054A126802F040020AB1EE
:100E9000012002E0002000E0012008BD0C280040F5
:100EA0000348006820F08000014908607047000096
:100EB0000C28004070B506460C4600250E48006818
:100EC0000E4900EA0105280CE070C5F304206070AB
:100ED00005F03F00A070C5F3423020705EB9E078A5
:100EE000FFF78FFFE0706078FFF78BFF6070A078EE
:100EF000FFF787FFA07070BD042800403FFFFF0090
:100F000010B5014600200022054B1B68054C03EA82
:100F1000040202EA01030BB1012000E0002010BD31
:100F20000C2800407F3F010070B506460C460025A6
:100F30000F4800680F4900EA0105C5F3054020701D
:100F4000C5F30620607005F07F00A07005F48000F6
:100F5000000CE0705EB92078FFF753FF20706078D6
:100F6000FFF74FFF6070A078FFF74BFFA07070BDD8
:100F7000002800407F7F7F0030B504460025CA204E
:100F80001549086053200860FFF762FF00B91DE0B3
:100F900011481C38006820F040000F491C390860D7
:100FA00008460068216808430B491C3908600A4953
:100FB0001439A068086008460068A18840EA01402A
:100FC000054914390860FFF76BFF0125FF2002492E
:100FD0000860284630BD00002428004008B50146BE
:100FE0000020009004480090009800EB81000090E1
:100FF0000098006808BD0000502800402DE9F0412D
:1010000005460C46002600274DB9607800F0100018
:10101000102804D1607820F010000A30607005B903
:1010200008E06078FFF7EDFE0646A078FFF7E9FEDE
:10103000064600BF55B1E0780004617840EA01201F
:10104000A1780843217840EA413611E0E078FFF7C3
:10105000E3FE4FEA00486078FFF7DEFE48EA00282A
:10106000A078FFF7D9FE48EA0008207848EA403621
:10107000CA201249086053200860FFF7E9FE08B94A
:10108000002714E00E4830400C4920390860FFF773
:1010900007FF0A481C38006800F0200030B900F053
:1010A000ADF808B9002702E0012700E00127FF2082
:1010B000024908603846BDE8F0810000242800405D
:1010C0003FFFFF002DE9F04105460C4600260027B2
:1010D0004DB92E48006800F0400000B102E0002049
:1010E000E07000BF0DE02948006800F0400020B12A
:1010F0002078FFF786FE064602E00020E07000BF81
:1011000000BF55B120780004617840EA0120A17841
:101110000843E17840EA014611E02078FFF77CFEC1
:101120004FEA00486078FFF777FE48EA0028A07889
:10113000FFF772FE48EA0008E07848EA0046CA2055
:1011400012491C31086053200860FFF781FE08B97E
:10115000002713E00E4830400C4908390860FFF7BB
:101160009FFE0A48006800F0200030B900F046F801
:1011700008B9002702E0012700E00127FF2003490A
:101180001C3108603846BDE8F081000008280040A6
:101190007F7F7F00F8B504460D4617461E468DF842
:1011A00002708DF801508DF800608DF8034069469B
:1011B0000020FFF723FFF8BDF8B504460D4617469B
:1011C0001E468DF800408DF801508DF802708DF8A4
:1011D000036069460020FFF775FFF8BD10B54FF4B6
:1011E0008060FFF78DFE012802D18002FFF722FE0A
:1011F0004FF48000FFF7E6F910BD000008B50022AB
:10120000009200200021CA22134B1A6053221A6058
:10121000114A183A126822F0A0020F4B183B1A60CC
:1012200000BF0D4A183A126802F02001009A521CC1
:101230000092009AB2F5003F01D00029F1D0064A91
:10124000183A126802F020020AB1012000E00020E2
:10125000FF22014B1A6008BD2428004008B5002277
:101260000092044A0092009A02EB80020092009AD7
:10127000116008BD50280040F8B5044659A0006828
:101280000090C82C03D0642C01D00020F8BD02F0DF
:1012900067FBFFF769FA2046E11704EB1161090AC1
:1012A0008DF80010E11704EB11610912A4EB012184
:1012B000C9B28DF8011003208DF80300032269469E
:1012C000062000F0F3FF05224749062000F0EEFF5C
:1012D00001220DF10301062000F0E8FF032243493B
:1012E000062000F0E3FF3020414908704FF47A7087
:1012F00002F080F93E480078732870D13C4840786D
:1013000074286CD13A48007B642868D138488079C9
:101310003749C97908443649097A0844C7B234487C
:10132000407AB84258D1324846798079451E2D021C
:101330002F48C07905442D022D48007A0544642CBD
:1013400004D12C4806702C48056003E02B48067039
:101350002B4805602BA0FFF70BF9264800780128E1
:1013600004D0022806D003280CD107E028A0FFF7FC
:10137000FFF807E02AA0FFF7FBF803E02CA0FFF737
:10138000F7F800BF00BF1C480068FFF707F92CA062
:10139000FFF7EEF82BA0FFF7EBF8184800780128CC
:1013A00004D0022806D003280CD107E018A0FFF7CC
:1013B000DFF807E01AA0FFF7DBF803E01CA0FFF757
:1013C000D7F800BF00BF0E480068FFF7E7F81CA081
:1013D000FFF7CEF8012059E7002057E7FFE700208C
:1013E00054E7000000007200620000206700002047
:1013F0005401002014000020180000201C000020D0
:1014000020000020D0A1B3B5D7B4CCACA3BA000063
:10141000C7B0BDF8A3ACD7F8B1EAA3BA000000008A
:10142000BAF3CDCBA3ACD7F8B1EAA3BA0000000061
:10143000BEB2D6B9A3ACD7F8B1EAA3BA0000000097
:101440000D0A0000B4F3C1BAD7B4CCACA3BA000003
:10145000704700002DE9FC41002733480088C8B9D7
:101460003248407831490978DFF8C4C0CDE900102E
:101470009CF801309CF80020DFF8B8C09CF80110FF
:101480009CF80000FFF756F808B101271BE0002088
:10149000BDE8FC812548407824490978DFF890C0F0
:1014A000CDE900109CF801309CF80020DFF888C0DE
:1014B0009CF801109CF80000FFF73CF808B10127E8
:1014C00001E00020E4E767B300F088FB38B31B4875
:1014D00080781B49087014480088401C1249088015
:1014E0001248007814490870104840781549098856
:1014F00044183C20B4FBF0F5B4FBF0F100FB1146BE
:101500000D48007828440C4908704E700846007851
:10151000182802DB0020044908800120B8E70020D9
:10152000B6E70020B4E70000100000200000002013
:101530005B000020580000205E0000200400002016
:10154000130000200E00002010B586B0124840782D
:1015500011490978114CCDE9001063782278104CBC
:1015600061782078FEF7E6FF98B100F037FB70B1A4
:101570000A200C490870084600788DF80C004C22AF
:10158000012103A802F0C8FB012006B010BD002015
:10159000FBE70020F9E70000000000205B000020CE
:1015A00058000020610000202DE9F041064600208F
:1015B0005E4908705EA0FEF7DBFF01F093FE18B1F4
:1015C00060A0FEF7D5FF05E065A0FEF7D1FF002083
:1015D000BDE8F08169A0FEF7CBFF3046FEF7DEFFE5
:1015E0006AA0FEF7C5FF6C48C16A426B701E02FB21
:1015F00000173946C820FFF70FF908B90020E7E7C0
:1016000066A0FEF7B5FF644841686420FFF704F95F
:1016100008B90020DCE768A0FEF7AAFF0025112426
:101620002FE004F0100038B15B484168642002F0FC
:1016300023F808B104F0EF0404F0010030B139469A
:10164000C82002F019F808B104F0FE044FF47A70D3
:1016500001F0D0FF6D1C2846FEF7A0FFB5F5167F00
:1016600004D95EA0FEF784FF0020B1E7FFF71EFA61
:1016700038B12E48007820B15CA0FEF779FF002039
:10168000A6E7002CCDD15EA0FEF772FF604800787F
:1016900000F062FF4FF47A7001F0ACFF5DA0FEF73E
:1016A00067FF3D480088401E3B4A121D52F820103B
:1016B0006420FFF7B1F80025012425E036480088B2
:1016C000401E354A121D52F82010642001F0D4FF4C
:1016D00000B100244FF47A7001F08CFF6D1C284695
:1016E000FEF75CFFC82D04D93CA0FEF741FF0020A7
:1016F0006EE7FFF7DBF938B10C48007820B13BA06A
:10170000FEF736FF002063E7002CD7D146A0FEF796
:101710002FFF00F0FDFE4FF47A7001F06BFF46A042
:10172000FEF726FFFEF7A0FE012051E70B00002088
:10173000C9A8C3E8D6B8B6A8C1D0BFAACABC0D0A0A
:1017400000000000D0A1B3B5BACDB4F3C1BABBD884
:10175000B9E9D4ADB5E3B3C9B9A6A3A10D0A000098
:10176000D0A1B3B5BACDB4F3C1BABBD8B9E9D4AD41
:10177000B5E3CAA7B0DCA3A10D0A0000B7A2CBCD88
:10178000B4F3C1BAB5BDB4EFB5DA0000C1D0D6B874
:10179000C1EE0D0A0000000074010020B7A2CBCDFD
:1017A000D0A1B3B5B5BDB4EFC6F0CABCD0D0D6B8E1
:1017B000C1EE0D0A00000000B2E9D1AFB5C8B4FD1A
:1017C000B4F3C1BABACDD0A1B3B5B5BDB4EFD6B8F4
:1017D000B6A8CEBBD6C30D0A00000000B5C8B4FD44
:1017E000B3ACCAB1B7B5BBD80D0A0000C9CFCEBBE8
:1017F000BBFAD6D5D6B9B5C8B4FD0D0A00000000B5
:10180000CAE4B3F63556D0C5BAC50D0A00000000CB
:101810000C000020D0A1B3B5D2C6B6AFD6D02E2EC4
:101820002E2E0D0A00000000B9D8B1D53556D0C50E
:10183000BAC50D0A00000000C9A8C3E8D6B8B6A80A
:10184000C1D0C8CECEF1CDEAB3C9A3A10D0A000024
:1018500070B500208D4908708DA0FEF789FE01F05B
:1018600041FD18B18FA0FEF783FE04E094A0FEF7BF
:101870007FFE002070BD99A0FEF77AFE9D48C16AE8
:10188000C820FEF7C9FF08B90020F3E79AA0FEF7C9
:101890006FFE984841686420FEF7BEFF08B900203B
:1018A000E8E79BA0FEF764FE0024112530E005F078
:1018B000100038B18F484168642001F0DDFE08B1A6
:1018C00005F0EF0505F0010038B18A48C16AC8206B
:1018D00001F0D2FE08B105F0FE054FF47A7001F078
:1018E00089FE641C2046FEF759FEB4F5167F04D924
:1018F00090A0FEF73DFE0020BCE7FFF7D7F838B117
:101900006248007820B18FA0FEF732FE0020B1E7D8
:10191000002DCCD190A0FEF72BFE0026A9E091A0CF
:10192000FEF726FE9348007800F016FE4FF47A701A
:1019300001F060FE90A0FEF71BFE6E48016BC82010
:10194000FEF76AFF0024012521E06A48016BC820E8
:1019500001F092FE00B100254FF47A7001F04AFECA
:10196000641C2046FEF71AFEB4F5167F04D971A058
:10197000FEF7FEFD00207DE7FFF798F838B14348F9
:10198000007820B16FA0FEF7F3FD002072E7002D74
:10199000DBD17EA0FEF7ECFD00F0BAFD4FF47A70CB
:1019A00001F028FE7DA0FEF7E3FD5248C16AC82081
:1019B000FEF732FF0024012521E04E48C16AC8200D
:1019C00001F05AFE00B100254FF47A7001F012FECA
:1019D000641C2046FEF7E2FDB4F5167F04D955A03D
:1019E000FEF7C6FD002045E7FFF760F838B127484D
:1019F000007820B153A0FEF7BBFD00203AE7002D90
:101A0000DBD1701CC6B23B480088B04231DD69A012
:101A1000FEF7AEFD3748001D50F826106420FEF793
:101A2000FBFE0024012522E03248001D50F826105C
:101A3000642001F021FE00B100254FF47A7001F01E
:101A4000D9FD641C2046FEF7A9FDC82C04D939A095
:101A5000FEF78EFD00200DE7FFF728F838B10B48A0
:101A6000007820B137A0FEF783FD002002E7002DAB
:101A7000DAD120480088B0423FF751AF52A0FEF7BC
:101A800077FDFEF7F1FC0120F4E600000B000020DA
:101A9000BFAACABCD6B4D0D0C8ABC3E6C9A8C3E8F5
:101AA0000D0A0000D0A1B3B5BACDB4F3C1BABBD80A
:101AB000B9E9D4ADB5E3B3C9B9A6A3A10D0A000035
:101AC000D0A1B3B5BACDB4F3C1BABBD8B9E9D4ADDE
:101AD000B5E3CAA7B0DCA3A10D0A0000B7A2CBCD25
:101AE000B4F3C1BABBD8B5DAD2BBC1D0D6B8C1EE57
:101AF0000D0A000074010020B7A2CBCDD0A1B3B570
:101B0000BBD8C6F0CABCD0D0D6B8C1EE0D0A000012
:101B1000B2E9D1AFB5C8B4FDB4F3C1BABACDD0A162
:101B2000B3B5B5BDB4EFD6B8B6A8CEBBD6C30D0A13
:101B300000000000B5C8B4FDB3ACCAB1B7B5BBD89E
:101B40000D0A0000C9CFCEBBBBFAD6D5D6B9B5C8F1
:101B5000B4FD0D0A00000000BFAACABCC9A8C3E8B2
:101B60000D0A0000CAE4B3F63556D0C5BAC50D0A51
:101B7000000000000C000020B4F3C1BAD2C6B6AF1A
:101B8000D6D02E2E2E2E0D0A00000000B9D8B1D5C9
:101B90003556D0C5BAC50D0A00000000B4F3C1BA6D
:101BA000D2C6B6AFB5BDC6F0CABCC1D0B4A60D0A88
:101BB00000000000D0A1B3B5D2C6B6AFB5BDCFC24C
:101BC000D2BBD0D00D0A0000C8ABC3E6C9A8C3E899
:101BD000B3C9B9A6CDEAB3C90D0A00002DE9F04F8B
:101BE0008DB000207E4908707EA0FEF7C1FC01F098
:101BF00079FB18B181A0FEF7BBFC06E086A0FEF7DA
:101C0000B7FC00200DB0BDE8F08F8AA0FEF7B0FC55
:101C10000024D8E08BA0FEF7ABFC601CFEF7BEFCF6
:101C20008CA0FEF7A5FC8DA0FEF7A2FC8F4951F811
:101C30002400FEF7B3FC70A0FEF79AFC8B4850F826
:101C400024106420FEF7E8FD00254FF0010B22E090
:101C5000864850F82410642001F00EFD08B14FF0C2
:101C6000000B4FF47A7001F0C5FC6D1C2846FEF79E
:101C700095FCC82D04D97EA0FEF77AFC0020C1E7B0
:101C8000FEF714FF38B15648007820B17CA0FEF76B
:101C90006FFC0020B6E7BBF1000FD9D14FF000096F
:101CA00007E0002003A901F8090009F1010000F094
:101CB000FF09B9F1280FF4DB04EB8400C00000F148
:101CC0006402282103A801F0DDFE9DF80C000290BB
:101CD0004FF0000A002671E003A9701C085C019017
:101CE0004FF0000865E0019800F00100002859D08D
:101CF0005E48001FC06A5D49091F496B082202FB4C
:101D0000068201FB020763A0FEF732FC3846FEF7AD
:101D100045FC39A0FEF72CFC3946C820FEF77CFDB7
:101D200000254FF0010B21E03946C82001F0A4FC4A
:101D300008B14FF0000B4FF47A7001F05BFC6D1CA2
:101D40002846FEF72BFCB5F5167F04D948A0FEF710
:101D50000FFC002056E7FEF7A9FE38B120480078B6
:101D600020B147A0FEF704FC00204BE7BBF1000FB9
:101D7000DAD14CA0FEF7FCFB4E48007800F0ECFBFB
:101D8000012001F037FC00F0C3FB0AF101001FFA4B
:101D900080FA49A0FEF7ECFB5046FEF7FFFB4AA095
:101DA000FEF7E6FB01984010019008F1010000F0F9
:101DB000FF08B8F1080F96DB701CC6B20298864285
:101DC0008ADB601CC4B22948001F0088A0423FF78C
:101DD00021AF3FA0FEF7CCFBFEF746FB012011E749
:101DE0000B000020BFAACABCD6B4D0D0C7F8D3F22B
:101DF000C9A8C3E8C8CECEF10D0A0000D0A1B3B582
:101E0000BACDB4F3C1BABBD8B9E9D4ADB5E3B3C95F
:101E1000B9A6A3A10D0A0000D0A1B3B5BACDB4F301
:101E2000C1BABBD8B9E9D4ADB5E3CAA7B0DCA3A1A8
:101E30000D0A0000BFAACABCD6F0D0D0C9A8C3E81A
:101E40000D0A0000D0A1B3B5D2C6B6AFB5BDB5DAA4
:101E50002000000020D0D02C00000000202020C452
:101E6000BFB1EAD7F8B1EAA3BA00000078010020B8
:101E7000B5C8B4FDB3ACCAB1B7B5BBD80D0A000044
:101E8000C9CFCEBBBBFAD6D5D6B9B5C8B4FD0D0AFD
:101E900000000000B4F3C1BAD2C6B6AFC4BFB1EA05
:101EA000A3BA2000D5D2B5BDC9A8C3E8B5E3CEBB5F
:101EB0000D0A00000C000020B1BED0D0D2D1C9A8BC
:101EC000C3E8C4BFB1EA200020B8F60D0A00000044
:101ED000C7F8D3F2C9A8C3E8CDEAB3C90D0A000018
:101EE00070B5064600205B4908705BA0FEF740FB1A
:101EF00001F0F8F918B15DA0FEF73AFB04E062A02A
:101F0000FEF736FB002070BD66A0FEF731FB6B4884
:101F1000C16AC820FEF780FC08B90020F3E768A07A
:101F2000FEF726FB3046FEF739FB69A0FEF720FBE3
:101F3000701E624A121D52F820106420FEF76CFCDD
:101F400008B90020DFE765A0FEF712FB0025112489
:101F500033E004F0100050B1701E584A121D52F8C0
:101F60002010642001F088FB08B104F0EF0404F0B5
:101F7000010038B15148C16AC82001F07DFB08B1A9
:101F800004F0FE044FF47A7001F034FB6D1C284617
:101F9000FEF704FBB5F5167F04D959A0FEF7E8FA61
:101FA0000020B0E7FEF782FD38B12A48007820B162
:101FB00057A0FEF7DDFA0020A5E7002CC9D159A0F3
:101FC000FEF7D6FA5B48007800F0C6FA4FF47A7054
:101FD00001F010FB58A0FEF7CBFA3848016BC8207F
:101FE000FEF71AFC0025012421E03448016BC820CB
:101FF00001F042FB00B100244FF47A7001F0FAFACC
:102000006D1C2846FEF7CAFAB5F5167F04D93CA028
:10201000FEF7AEFA002076E7FEF748FD38B10D482E
:10202000007820B13AA0FEF7A3FA00206BE7002C5D
:10203000DBD146A0FEF79CFA00F06AFA4FF47A7002
:1020400001F0D8FA45A0FEF793FAFEF70DFA012049
:1020500059E700000B000020C9A8C3E8D6B8B6A80D
:10206000D0D0C8CECEF10D0A00000000D0A1B3B58B
:10207000BACDB4F3C1BABBD8B9E9D4ADB5E3B3C9ED
:10208000B9A6A3A10D0A0000D0A1B3B5BACDB4F38F
:10209000C1BABBD8B9E9D4ADB5E3CAA7B0DCA3A136
:1020A0000D0A0000B7A2CBCDB4F3C1BABBD8C6F0BD
:1020B000CABCC1D0D6B8C1EE0D0A00007401002020
:1020C000B7A2CBCDD0A1B3B5B5BDB4EFB5DA0000A2
:1020D000D0D0D6B8C1EE0D0A00000000B2E9D1AFF1
:1020E000B5C8B4FDB4F3C1BABACDD0A1B3B5B5BDCE
:1020F000B4EFD6B8B6A8CEBBD6C30D0A0000000018
:10210000B5C8B4FDB3ACCAB1B7B5BBD80D0A0000B1
:10211000C9CFCEBBBBFAD6D5D6B9B5C8B4FD0D0A6A
:1021200000000000CAE4B3F63556D0C5BAC50D0AA2
:10213000000000000C000020B4F3C1BAD2C6B6AF54
:10214000D6D02E2E2E2E0D0A00000000B9D8B1D503
:102150003556D0C5BAC50D0A00000000C9A8C3E8AD
:10216000D6B8B6A8D0D0C8CECEF1CDEAB3C90D0A44
:102170000000000038B505460C460DA00068009030
:102180008DF8014014B9FEF75FF901E0FEF79CF904
:1021900005220849284600F089F8022269462846A7
:1021A00000F084F803220449284600F07FF838BD87
:1021B0000B00000062000020670000207CB505468F
:1021C0000C46104903C9CDE90001E0B28DF80100C9
:1021D000200A8DF80200200C8DF80300200E8DF8E7
:1021E000040005220849284600F060F805226946E7
:1021F000284600F05BF803220449284600F056F810
:102200007CBD0000783D00086200002067000020CF
:10221000F0B52DED028B81B0054620A0006800903E
:1022200005210020FEF760FA074641F6C81107FBBA
:1022300001F0C11700EB1151091300EE101AB8EEAE
:10224000C00AB0EE408A9FED160AB4EEC08AF1EEE5
:1022500010FA01DB012000E002200646BCEEC80AAD
:1022600010EE100A84B28DF80160E0B28DF8020021
:1022700020128DF8030005220A49284600F016F8BE
:1022800004226946284600F011F803220649284630
:1022900000F00CF801B0BDEC028BF0BD0D000000A9
:1022A00000005C43620000206700002070B5044617
:1022B0000D461646062C04D13146284601F066FB31
:1022C00005E0022C03D13146284601F017FD70BD10
:1022D00010B58EB004460C208DF804004748C07835
:1022E00000F5FA60C0B28DF805004448C07800F5EA
:1022F000FA6000128DF8060000208DF807008DF8B6
:1023000008003E4840788DF809003C4880788DF8F8
:102310000A003B4800788DF80B00394840788DF86A
:102320000C00374880788DF80D00344800788DF81F
:102330000E0020208DF80F00324800788DF8100034
:1023400020208DF81100304800788DF812002E48BA
:1023500040788DF813002D4800788DF814002B4834
:1023600040788DF815002A4800788DF81600284826
:10237000008800128DF8170000208DF818008DF8E5
:102380001900244800788DF81A0020208DF81B00D1
:10239000214800788DF81C001F48008800128DF835
:1023A0001D0000208DF81E008DF81F00FF208DF805
:1023B00020008DF821008DF822008DF823001648AA
:1023C00080788DF824001448408800128DF825008C
:1023D00000208DF826008DF8270005220F492046A1
:1023E000FFF764FF242201A92046FFF75FFF0322C5
:1023F0000B492046FFF75AFF0EB010BD0400002025
:10240000000000200C000020580000205B0000208D
:102410000E000020610000207401002062000020F6
:10242000670000200CB5002001900090344800683F
:1024300040F480303249086000BF3148006800F441
:10244000003000900198401C0190009818B9019844
:10245000B0F5A04FF1D12A48006800F4003010B167
:102460000120009001E0002000900098012846D152
:1024700023484030006840F08050214940310860D6
:102480002048006840F440401E4908601C4808305D
:1024900000681B49083108600846006840F40040A5
:1024A00008600846006840F4A05008601648091FFC
:1024B0000860081F006840F08070091F086000BFB6
:1024C0000F48006800F000700028F9D040F2057055
:1024D0000E4908600A480830006820F003000849E7
:1024E000083108600846006840F00200086000BF3C
:1024F00003480830006800F00C000828F8D10CBD33
:10250000003802400070004008544007003C024080
:1025100008B50020009001F023FAFEF725F9032208
:102520000A490620FFF7C2FE052209490620FFF7E7
:10253000BDFE012269460620FFF7B8FE03220549C9
:102540000620FFF7B3FE01F0ABFB08BD6A000020D8
:10255000620000206700002038B50446002000908B
:1025600001F0FEF9FEF700F904208DF800008DF867
:10257000014003220A490620FFF798FE0522094977
:102580000620FFF793FE022269460620FFF78EFE23
:10259000032205490620FFF789FE01F081FB38BDC3
:1025A0006A0000206200002067000020042808D193
:1025B0004FF0E021096941F004014FF0E022116180
:1025C00007E04FF0E021096921F004014FF0E0221B
:1025D000116170477047000010B51548006840F45D
:1025E0007000134908601348006840F00100114969
:1025F000086000200F49083108600E4800680E4945
:1026000008400C4908600D48091D0860081F006853
:1026100020F48020091F0860002006490C31086062
:10262000FFF700FF4FF0006001498039086010BDDE
:1026300088ED00E000380240FFFFF6FE1030002475
:1026400010B501212A4800F0AAF801284BD12948E9
:102650000088401C80B227490880B0F5FA7F1ADB59
:10266000002008804FF480712348FEF720F82349AA
:102670000020FEF759FC22490020FEF71BFC2148F0
:10268000008840B11E4880781F490978884202D0EE
:1026900000201C4908801D48007880B11C48008833
:1026A000401C1B49088008460088052807DB0020DD
:1026B0001649087016490880012016490870164806
:1026C000007880B115480088401C144908800846ED
:1026D0000088052807DB00200F4908700F49088093
:1026E00001200F4908700121014800F049F810BD90
:1026F00000040040300000200010024000000020D4
:1027000004000020100000201300002028000020FA
:1027100026000020240000203C0000203A00002079
:102720002C0000207FB505460C4601210220FEF753
:102730005BFA0295ADF804400020ADF80600ADF854
:102740000C0001A90D4800F045F8012211460B4884
:1027500000F036F80121094800F015F81D208DF829
:10276000000001208DF8010003208DF802000120F7
:102770008DF803006846FEF753F97FBD0004004062
:10278000CA430282704721B1028842F001020280EE
:1027900004E002884FF6FE731A400280704730B59D
:1027A0000246002000230024158A05EA01039589CA
:1027B00005EA010413B10CB1012000E0002030BD96
:1027C0001AB183890B43838102E083898B43838120
:1027D0007047000000220288184B98420ED0184B18
:1027E00098420BD0B0F1804F08D0164B984205D0DC
:1027F000154B984202D0154B984204D14FF68F7377
:102800001A404B881A43124B984207D0114B9842FA
:1028100004D04FF6FF431A400B891A4302804B68DD
:10282000C3620B880385054B984202D0044B984243
:1028300001D18B7A03860123838270470000014017
:10284000000401400004004000080040000C00406B
:10285000001000400014004010B540F225510B4814
:1028600000F0B7F888B1094800F06CF9C4B2084824
:1028700001780078401C064A107006484454002035
:102880000549088001200549087010BD005000402E
:102890002D000020F00000203A0000203C00002025
:1028A00010B540F22551064800F093F830B10448C5
:1028B00000F048F9C4B2204601F008F910BD00004C
:1028C0000010014010B540F225510B4800F081F88E
:1028D00088B1094800F036F9C4B208480178007898
:1028E000401C064A107006484454002005490880E0
:1028F00001200549087010BD004400402900002057
:1029000078000020260000202800002010B540F2AA
:102910002551104800F05DF8D0B10E4800F012F9D2
:10292000C4B2442C02D100200B4908700A48017837
:102930000078401C084A107008484454104600783B
:10294000102805DB0020114608700120044908709A
:1029500010BD0000004800402B000020DC000020DB
:102960002A00002010B540F225510C4800F031F843
:1029700090B10A4800F0E6F8C4B20948017800783E
:10298000401C074A107007484454104600781E281F
:1029900002DB00201146087010BD00000014014049
:1029A0002E0000205401002001F40072B2F5007FD7
:1029B00000D100BFCA430280704721B1828942F42E
:1029C0000052828104E082894DF6FF731A408281B1
:1029D000704770B50246002400230025002040F611
:1029E0006A16B14200D100BFC1F3421501F01F03C6
:1029F000012606FA03F3012D02D19689334006E041
:102A0000022D02D1168A334001E0968A33400C121F
:102A1000012606FA04F41688344013B10CB10120E3
:102A200000E0002070BDF0B503460024002600251C
:102A3000002040F66A17B94200D100BF1846C1F322
:102A4000421401F01F06012707FA06F5012C01D1F7
:102A50000C3004E0022C01D1103000E014301AB127
:102A600007682F43076002E00768AF430760F0BDC7
:102A70002DE9FF4705460E460024A14600BFA046AB
:102A8000B08900B100BF2C8A24F44054F08804437C
:102A90002C82AC8941F20C608443B08831890843B0
:102AA000718908430443AC81AC8A24F44074B08932
:102AB0000443AC826846FEF7C7F82048854202D03E
:102AC0001F48854202D1DDF80C9001E0DDF8089046
:102AD000A88900F4004040B109EBC90000EB0910DF
:102AE00031684900B0FBF1F707E009EBC90000EBE2
:102AF000091031688900B0FBF1F76420B7FBF0F0F2
:102B000004012009642101FB1078A88900F4004029
:102B100040B1322000EBC800B0FBF1F000F007003C
:102B2000044308E0322000EB08106421B0FBF1F010
:102B300000F00F0004432C81BDE8FF870010014026
:102B40000014014001468888C0F30800704700BFA8
:102B5000FEE700002DE9F041A6B00546022D0FD199
:102B6000002405E0F848005D0DA90855601CC4B2BA
:102B7000F64800788442F5DB0020F449087015E03F
:102B8000052D0FD1002405E0F148005D0DA9085581
:102B9000601CC4B2EF4800788442F5DB0020ED49A8
:102BA000087003E0002026B0BDE8F0819DF83400F5
:102BB00073287BD19DF836006128FAD19DF8380042
:102BC0007428F6D19DF8390010282ED2DFE800F0E5
:102BD0002D8AB8F5F4F3F22D2D2D08F12EF02DEFFE
:102BE0000120FDF781FF9DF83AC09DF83B800CEB7A
:102BF000082CACF5FA6C0CF0FF009DF841309DF804
:102C00003D209DF83C10FEF7C5FA9DF840209DF848
:102C10003F109DF83E000023FEF7CEFA0020FDF79E
:102C200063FF00212846FFF7A5FA97E200208DF800
:102C300000008DF801009DF83B008DF802009DF822
:102C40003A008DF803009DF83A009DF83B1000EB28
:102C50000120C14908800B220421684601F05CF87C
:102C600000208DF800008DF801009DF83F008DF8E0
:102C700002009DF83E008DF803009DF83E009DF88F
:102C80003F1000EB0120B44948800F220421684620
:102C900001F042F800212846FFF76CFAAE48408860
:102CA000012804D10020AC49486310E057E2AA484B
:102CB000408801280BDDA848006BA749C96A411A62
:102CC000A5484088401EB1FBF0F0A3494863A3A08B
:102CD000FDF74EFCA049486BFDF760FCA2A0FDF794
:102CE00047FC3BE26420FEF7C7FA20B39F48006828
:102CF000000E8DF800009D480068000C8DF8010062
:102D00009A480068000A8DF8020098480068C0B22E
:102D10008DF803009DF83A00401E800000F5FA701F
:102D200082B20421684600F0F7FF90480168284607
:102D3000FFF744FA03E003212846FFF71BFA0DE2F0
:102D4000C820FEF799FA00285BD089480068000E79
:102D50008DF8000086480068000C8DF8010084485A
:102D60000068000A8DF8020081480068C0B28DF842
:102D700003009DF83A00012820D17D48006876497B
:102D8000C8623B220421684600F0C6FF7248C16A4F
:102D90002846FFF713FA7048006B6F49C96A401A5A
:102DA0006D494988B0FBF1F06B4948632DE001E1C2
:102DB0002CE048E1C0E1BEE1B9E194E19DF83A00C0
:102DC000022819D16A480068634908633F22042138
:102DD000684600F0A1FF6048016B2846FFF7EEF956
:102DE0005D48006B5C49C96A401A5B494988B0FB81
:102DF000F1F05949486308E003212846FFF7BAF982
:102E000003E003212846FFF7B5F9A7E19DF83A0052
:102E10000D2816D2DFE800F007162534435A626AFF
:102E20006E7C8AB0BE0001216420FDF7B1FC20B1A8
:102E300000212846FFF79EF903E003212846FFF70B
:102E400099F9B5E002216420FDF7A2FC20B1002130
:102E50002846FFF78FF903E003212846FFF78AF998
:102E6000A6E00221C820FDF793FC20B100212846EE
:102E7000FFF780F903E003212846FFF77BF997E08D
:102E80000121C820FDF784FC20B100212846FFF76E
:102E900071F903E003212846FFF76CF988E003216C
:102EA0006420FDF775FC04460321C820FDF770FC83
:102EB0000646A019022804DA03212846FFF75AF92A
:102EC00003E000212846FFF755F971E00120294968
:102ED000087000212846FFF74DF969E000202549D8
:102EE000087000212846FFF745F961E02846FFF702
:102EF000EFF95DE0C820FDF7F5FC20B10021284680
:102F0000FFF738F903E003212846FFF733F94FE0D4
:102F10006420FDF7E7FC20B100212846FFF72AF9DD
:102F200003E003212846FFF725F941E00220FDF7E1
:102F3000D7FA20B100212846FFF71CF903E003214E
:102F40002846FFF717F933E0780000202900002019
:102F5000F00000202D00002074010020C1D0BCE44E
:102F6000BEE0A3BA000000000D0A00001800002017
:102F700020000020080000200120FDF7B1FA20B158
:102F800000212846FFF7F6F803E003212846FFF763
:102F9000F1F80DE00020FDF7A3FA20B1002128464A
:102FA000FFF7E8F803E003212846FFF7E3F800BF46
:102FB00000BFD3E09DF83A0030B1012811D00228BB
:102FC0001CD003283DD128E001206649087000216B
:102FD0002846FFF7CFF8FEF701FE00206149087090
:102FE0002FE001205F49087000212846FFF7C2F852
:102FF000FEF72EFC00205B49087022E001205949B1
:10300000087000212846FFF7B5F89DF83B00FEF751
:1030100067FF00205349087013E0012051490870F0
:1030200000212846FFF7A6F89DF83B009DF83C10CC
:1030300000EB0127B8B2FEF7B7FA00204949087043
:1030400000BF00BF8AE09DF83A00474908709DF82C
:103050003B00464908709DF83C0048709DF83D00D3
:10306000434908709DF83E0048709DF83F009DF868
:10307000401000EB01203F4908809DF843003E4985
:103080000870394800788DF80000384800788DF8CD
:103090000100364840788DF80200354800788DF8F8
:1030A0000300334840788DF804009DF83F008DF808
:1030B00005009DF840008DF806009DF841008DF850
:1030C00007009DF842008DF808009DF843008DF838
:1030D000090043220A21684600F01EFE002128460E
:1030E000FFF748F83AE0002406E00DA9E01D085C6F
:1030F0000DF80400601CC4B29DF83B00401CA042C7
:10310000F3DC9DF83A00401E00EB8000C000643004
:1031100082B29DF83B00411C684600F0FDFD142082
:1031200000F068FA00212846FFF724F816E0284648
:10313000FFF76EF812E011E09DF83A000F490870B1
:103140009DF83A008DF800004D220121684600F0FC
:10315000E3FD00212846FFF70DF800BF00BF012066
:1031600021E50000090000200C000020580000208C
:103170005B0000200E0000206100002012000020F3
:1031800070B59CB00546022D0FD1002405E04F48D4
:10319000005D03A90855601CC4B24D480078844204
:1031A000F5DB00204A49087014E0052D0FD10024FA
:1031B00005E04848005D03A90855601CC4B24648B4
:1031C00000788442F5DB00204349087002E00020CB
:1031D0001CB070BD9DF80C00732875D19DF80E00D1
:1031E000612871D19DF8100074286DD19DF81100EF
:1031F000052804D0062806D00D2864D115E001204A
:10320000364908705FE09DF81200354908709DF856
:1032100012008DF800004D220121684600F07CFD6F
:1032200000212846FEF7A6FF4DE09DF81200042875
:1032300006D00A281BD00B2827D00C2841D132E019
:1032400003216420FDF7A4FA04460321C820FDF7FA
:103250009FFA0646A019022804DA03212846FEF741
:1032600089FF03E000212846FEF784FF29E00220C1
:10327000FDF736F920B100212846FEF77BFF03E079
:1032800003212846FEF776FF1BE00120FDF728F911
:1032900020B100212846FEF76DFF03E003212846F8
:1032A000FEF768FF0DE00020FDF71AF920B10021BC
:1032B0002846FEF75FFF03E003212846FEF75AFF8A
:1032C00000BF00BF00BF00BF012081E778000020E1
:1032D00029000020F00000202D0000200B0000201D
:1032E0001200002070B500202749087027A0FDF7C4
:1032F0003FF96420FDF7F6FA20B92BA0FDF738F965
:10330000002070BDC820FDF7EDFA20B92BA0FDF715
:103310002FF90020F5E72EA0FDF72AF9002511244A
:103320002EE004F0100030B10021642000F0A4F978
:1033300008B104F0EF0404F0010030B10021C8200E
:1033400000F09AF908B104F0FE044FF47A7000F02E
:1033500051F96D1C2846FDF721F9B5F5167F04D902
:1033600023A0FDF705F90020CBE7FDF79FFB38B15F
:103370000548007820B122A0FDF7FAF80020C0E748
:10338000002CCED10120BCE70B000020B7A2CBCD92
:10339000D0A1B3B5BACDB4F3C1BAB9E9D4ADB5E3F0
:1033A000D6B8C1EE0D0A0000BACDD0A1B3B5CDA8F4
:1033B000D0C5CAA7B0DC0D0A00000000BACDB4F336
:1033C000C1BACDA8D0C5CAA7B0DC0D0A0000000064
:1033D000B2E9D1AFB5C8B4FDB4F3C1BABACDD0A18A
:1033E000B3B5B5BDB4EFC1E3B5E30D0A000000000D
:1033F000B5C8B4FDB3ACCAB1B7B5BBD80D0A0000AF
:10340000C9CFCEBBBBFAD6D5D6B9B5C8B4FD0D0A67
:10341000000000000FB4054B10B503A9044A029840
:1034200000F018F810BC5DF814FB0000DD36000851
:103430007400002002E008C8121F08C1002AFAD157
:1034400070477047002001E001C1121F002AFBD124
:10345000704700002DE9FF4F89B09B4604460025C8
:1034600006E025280BD05A460B999047641C6D1C2A
:1034700020780028F5D10DB02846BDE8F08F002750
:10348000B8460122474900E0074314F8013F203BBA
:1034900002FA03F00842F7D120782E2819D114F847
:1034A000010F47F004072A280ED06FF02F02207872
:1034B000A0F1300109290CD808EB880102EB410189
:1034C00000EB0108641CF2E70A98641C50F8048BB6
:1034D0000A9020780028CED0642808D0692806D029
:1034E00075281ED05A460B9990476D1C58E00A99D2
:1034F0004FF00A0901C90A91002802DA40422D2141
:1035000002E0390504D52B218DF82010012103E0BC
:10351000F90704D02021F7E78A4608AE0DE0002124
:10352000FAE70A994FF00A0901C90A91F7E74946F3
:10353000FCF746FE303106F8011D0028F7D1ADEB4F
:10354000060000F12009780701D44FF00108C845B2
:1035500002DDA8EB090000E000208046002706E01D
:1035600008A85A46C05D0B9990476D1C7F1C5745B3
:10357000F6DB04E030205A460B9990476D1CB8F1F9
:103580000001A8F10108F5DC05E016F8010B5A4628
:103590000B9990476D1CB9F10001A9F10109F4DC08
:1035A000641C65E70928010002468A4201D3501ACB
:1035B0007047881AFCE7000010B504466FF004005D
:1035C000FEF7F4FFE11704EB5171C1F3C701074A9D
:1035D00011701046007800EB4001C1EBC0104FF6AF
:1035E000FF7101EAC0000249088010BD3E000020C2
:1035F0004000002070B504464FF4077094FBF0F0D3
:10360000C6B24FF4077094FBF0F100FB114085B295
:1036100005E04FF4077000F009F8701EC6B2002EE6
:10362000F7D115B1284600F001F870BD0146114AE6
:1036300012884A434FF0E0235A6100229A611A46E9
:10364000126942F001021A6100BF4FF0E0221069D6
:1036500000F001021AB100F48032002AF5D04FF0D8
:10366000E022126922F001024FF0E0231A610022E9
:103670009A617047400000202DE9F04104460D4654
:10368000642C02D11148007801E011480078064608
:10369000642C02D10F48006801E00F48006807461B
:1036A0006420FDF7E9FD70B1032E0AD129463846A2
:1036B000FFF77AFF1E2802D20120BDE8F08100202A
:1036C000FBE70020F9E70020F7E7000014000020E6
:1036D0001C000020180000202000002000BF054A28
:1036E000128802F04002002AF9D0C2B2014B1B1D21
:1036F0001A8070470014014010B58EB00B220421CF
:1037000001A800F0BFF99DF807007749088077A06D
:10371000FCF72EFF74490888FCF740FF76A0FCF701
:1037200027FF0F22042101A800F0ACF99DF8070043
:103730009DF8061000EB01206B4948806FA0FCF754
:1037400017FF69494888FCF729FF6BA0FCF710FFB9
:1037500000242CE0A00000F5FA72042101A800F07A
:1037600091F99DF8040000069DF8051000EB01405A
:103770009DF8061000EB01209DF8071001445A48FF
:10378000001D40F8241060A0FCF7F2FE601CFCF75E
:1037900005FF5EA0FCF7ECFE5349091D51F824001B
:1037A000FCF7FCFE54A0FCF7E3FE601CC4B24E48DC
:1037B0000088A042CEDC3B22042101A800F062F97F
:1037C0009DF8040000069DF8051000EB01409DF8EF
:1037D000061000EB01209DF8071008444249C8621A
:1037E0004DA0FCF7C5FE4049C86AFCF7D7FE42A0D1
:1037F000FCF7BEFE3F22042101A800F043F99DF82A
:10380000040000069DF8051000EB01409DF806102D
:1038100000EB01209DF8071008443349086341A0DC
:10382000FCF7A6FE3049086BFCF7B8FE32A0FCF7A7
:103830009FFE2D484088012803D100202A49486373
:103840000FE02948408801280BDD2748006B2649F6
:10385000C96A411A24484088401EB1FBF0F0224951
:10386000486333A0FCF784FE1F49486BFCF796FEC3
:1038700021A0FCF77DFE43220B2101A800F002F9F4
:103880009DF804002D4908709DF805002C4908702A
:103890009DF8060048709DF807002A4908709DF8B9
:1038A000080048709DF809009DF80A1000EB0120FF
:1038B0009DF80B1000EB01409DF80C1000EB01602F
:1038C000214908809DF80D00204908709DF80E00E0
:1038D0001F49087000201F4908801F4908701F49B0
:1038E000087048700EB010BD74010020D6B2CEEF43
:1038F000D0D0CAFDA3BA00000D0A0000D6B2CEEFA8
:10390000C1D0CAFDA3BA0000B5DA200020D0D0D7BC
:10391000F8B1EAA3BA200000CAD7C1D0D7F8B1EAFB
:10392000A3BA0000C4A9C1D0D7F8B1EAA3BA000075
:10393000C1D0BCE4BEE0A3BA000000000C0000202F
:10394000580000205B0000200E00002061000020D5
:103950001200002010000020130000205E00002054
:103960000020024908700249087070472E000020AC
:103970005401002010B54FF4165000F029F910BD85
:1039800010B50446204600F07DF910BD70B505461F
:103990000E46002400BF04E0285DFFF7F1FF601C25
:1039A000C4B2B442F8DB70BD00202B4908704FF45C
:1039B000A060FDF771F8FCF7E6FFA820FFF7FCFD1B
:1039C00000F090F9FFF7D6FFFCF7E0FCFCF7A6FE4D
:1039D000FCF71CFD42F2CF010920FEF7A3FEFFF722
:1039E0008BFE00201D4908801D4908701D49088074
:1039F0001D4908701D4908701D4908801D4908703F
:103A00001D4908701D490870FCF71EFD22E014488E
:103A1000007858B101201949087000201049087039
:103A20000220FFF797F80020144908700F4800782B
:103A300058B101201149087000200C490870052078
:103A4000FFF788F800200D4908700D48007808B18C
:103A5000FDF758F8DBE700000800002030000020E8
:103A60002400002026000020280000202C00002038
:103A70003A0000203C0000200A000020090000203D
:103A8000120000202DE9F04707460D4616464FF478
:103A90008059DFF83480A819B0F5805F03DB4FF060
:103AA000FF30BDE8F08701218804FDF78DF8002480
:103AB00005E008EB0600005D3855601C84B2AC429E
:103AC000F7DB0020EDE700000040024000BF0449A2
:103AD000098801F040010029F9D001498880704728
:103AE0000010014030B587B0054601210846FDF7BA
:103AF0006BF801214804FDF777F8072202212948D5
:103B0000FCF7AEFD072203212648FCF7A9FD0C2097
:103B1000059002208DF818008DF8190000208DF80E
:103B20001A0001208DF81B0005A91E48FCF750FD66
:103B300001950020ADF80800ADF80A00ADF80C00C2
:103B4000ADF810000C20ADF80E0001A91648FEF7E4
:103B50008FFF01211448FEF730FF40211248FEF785
:103B600023FF012240F225510F48FEF75CFF26207B
:103B70008DF8000003208DF801008DF8020001206F
:103B80008DF803006846FCF74BFF002007490870DA
:103B9000002403E0002006490855641C642CF9DB6E
:103BA00007B030BD00000240004400402900002062
:103BB0007800002000BF0549098801F04001002974
:103BC000F9D00249091D08807047000000440040F8
:103BD00010B588B0044601210420FCF7F5FF01214F
:103BE0002020FDF711F8082206212448FCF738FDB3
:103BF000082207212148FCF733FDC020069002204F
:103C00008DF81C008DF81D0000208DF81E0001208D
:103C10008DF81F0006A91948FCF7DAFC0294002071
:103C2000ADF80C00ADF80E00ADF81000ADF81400C2
:103C30000C20ADF8120002A91148FEF719FF01216E
:103C40000F48FEF7BAFE40210D48FEF7ADFE0122F7
:103C500040F225510A48FEF7E6FE47208DF80400A1
:103C600003208DF805008DF8060001208DF807006F
:103C700001A8FCF7D5FE08B010BD00000008024006
:103C80000014014000BF0549098801F040010029E6
:103C9000F9D00249091D0880704700000014014056
:103CA00010B5002409E00220FFF7A4FC601CC4B298
:103CB000B4F5FA7F01DB002010BD08480078032826
:103CC000F1DB07480078412805D1054880784B286A
:103CD00001D10120F0E70020EEE700002E000020D7
:103CE0005401002010B54FF4E130FFF7FBFE10BD8A
:103CF00010B504462046FFF75DFF10BD70B50546C0
:103D00000E46002400BF04E0285DFFF7F1FF601CB1
:103D1000C4B2B442F8DB70BD2DE9F04707460D464A
:103D200016464FF48059DFF84C80A819B0F5805F33
:103D300003DB4FF0FF30BDE8F08701218804FCF77A
:103D400043FF01210807FCF74FFF0120FCF7CCFEE1
:103D50000120FCF7CFFE002405E0385D08EB0601EA
:103D60000855601C84B2AC42F7DB0020FCF7BCFEB7
:103D70000020E0E7004002400A00000000000000D0
:103D8000A03D000800000020780000003434000846
:103D9000183E000878000020380500004434000870
:103DA0000000000000000000000000000000000013
:103DB0000000000000000000000000000000000003
:103DC00000000000000000000000000000000000F3
:103DD00000000000000000000000000000000000E3
:103DE00000000000000001020304010203040607B2
:103DF00008090000000000000000000000000000B2
:103E000000007374617274656E6400644800C84891
:083E1000012C48000000000035
:040000050800018965
:00000001FF
